:020000040800F2
:10000000481B002001010008ED2C0008A11F00087A
:10001000E92C0008E91600080F3D00080000000068
:100020000000000000000000000000009130000807
:100030006D19000800000000752D0008AD310008A2
:100040001B0100081B0100081B0100081B01000820
:100050001B0100081B010008711900081B010008A2
:100060001B0100081B0100081B0100081B01000800
:100070001B0100081B0100081B0100081B010008F0
:100080001B0100081B0100081B0100081B010008E0
:100090001B0100081B0100081B0100081B010008D0
:1000A0001B0100081B0100081B0100081B010008C0
:1000B000A53200081B0100081B0100081B010008F5
:1000C0001B0100081B0100081B0100081B010008A0
:1000D0001B010008753600080D3800082D3A00088D
:1000E000E51900081B0100081B010008DFF80CD00F
:1000F00000F0E8FB00480047B9600008481B0020FA
:100100000648804706480047FEE7FEE7FEE7FEE7B1
:10011000FEE7FEE7FEE7FEE7FEE7FEE7B131000897
:10012000ED00000840EA01039B0703D009E008C97D
:10013000121F08C0042AFAD203E011F8013B00F8AC
:10014000013B521EF9D27047D2B201E000F8012BF8
:10015000491EFBD270470022F6E710B513460A4647
:1001600004461946FFF7F0FF204610BD30B505469E
:100170002A460B4612F8010B13F8014B08B1A042B6
:10018000F8D01CB1002802D06D1CF1E7284630BD24
:10019000CAB2401E10F8011F8A4202D00029F9D1CC
:1001A00000207047421C10F8011B0029FBD1801A67
:1001B000704730B504460020034600E05B1C9342C4
:1001C00003D2E05CCD5C401BF8D030BD10B50446D6
:1001D00000E0401C0378002BFBD100E0401C521EC5
:1001E00004D311F8013B0370002BF7D100210170FB
:1001F000204610BD034611F8012B00F8012B002A00
:10020000F9D11846704770B5064603F00DFE046834
:1002100005460A220021304600F041F92C6070BDED
:100220002DE9FE4F81EA030404F0004421F000416F
:1002300000944FF0000B23F0004350EA01045ED01D
:1002400052EA03045BD0C3F30A54C1F30A552C44A9
:10025000A4F2F3340194A0FB0254C1F3130141F45E
:100260008011C3F3130343F4801301FB024400FB2A
:10027000034E840A970A44EA815447EA8357A4FB51
:10028000076802958D0A05FB07854FEA932C04FB4E
:100290000C542705029D4FEA065847EA1637B5EB7E
:1002A00008056EEB070C870E920E47EA811742EAAB
:1002B0008312A7FB0201B6EB0B0164EB00042B0DCC
:1002C00043EA0C335E1844EB1C50DA465146E7FB18
:1002D0000201C5F313044FEA0B3343EA14534FEA08
:1002E0000432019C43EA0603A4F10C040294009C2E
:1002F000CDE900B400F051F903B0BDE8F08F002063
:100300000146F9E796230022114600F009B90EB51F
:10031000C10F80EAE0700844CA07002140F233436D
:100320008DE80E000A460B4600F037F903B000BD19
:1003300000F0004220F00040C10DC0F3160040F470
:1003400000007F2901DA00207047962903DCC1F103
:100350009601C84001E096398840002AF4D0404216
:10036000704720F00040C10DC0F3160040F40000BB
:100370007F2901DA00207047962903DCC1F196013C
:10038000C840704796398840704700F0004230F00E
:1003900000400AD0C10D01F56071C0F3160042EAB9
:1003A0000151C208400711437047002001467047C1
:1003B00001F0004330B421F0004150EA010206D0C0
:1003C0000A0DA2F56072C1F31301002A02DC30BCF1
:1003D00000207047440F44EAC104C100E01830BC5B
:1003E00000EBC25000F093B8002801DBC0F10040E0
:1003F000002901DBC1F1004181427047002801DB87
:10040000C0F10040002901DBC1F100418842704782
:1004100030B50B46014600202022012409E021FAD4
:1004200002F59D4205D303FA02F5491B04FA02F5D1
:100430002844151EA2F10102F1DC30BD2DE9F05F68
:100440000546002092469B46884606468146402443
:100450001BE0284641464746224600F054FA5346E0
:100460005A46C01A914110D311461846224600F050
:100470003BFA2D1A67EB01084F4622460120002166
:1004800000F032FA17EB00094E41201EA4F10104DE
:10049000DFDC484631462A464346BDE8F09F2DE959
:1004A000F04791460F4680460446002614F8015B4B
:1004B0002DB100F04BFA0068405DC007F6D12B2D3E
:1004C00002D02D2D18D0641E4A463946204600F031
:1004D00041FA27B13968A14201D1C7F800807105FE
:1004E0004FF002040BD54042002803DD03F09CFCD2
:1004F0000460A007BDE8F08746F48066E4E70028C2
:10050000F8DA03F091FC04606FF00040F2E7002994
:10051000A8BF7047401C490008BF20F00100704789
:1005200010B4B0FA80FC00FA0CF050EA010404BFE9
:1005300010BC704749B1CCF1200421FA04F411FA3F
:100540000CF118BF012121430843A3EB0C01CB1D83
:100550004FEA00614FEA102042BF002010BC7047F4
:1005600000EBC35010440029A4BF10BC7047401CCE
:10057000490008BF20F0010010BC704710B5141EE0
:1005800073F1000408DA401C41F1000192185B414C
:100590001A4301D120F0010010BD2DE9F04D924623
:1005A0009B4611B1B1FA81F202E0B0FA80F220323A
:1005B000904600F099F904460F4640EA0A0041EAE5
:1005C0000B0153465A46084313D0114653EA010023
:1005D00019D0C8F14002504600F095F905460E4684
:1005E00050465946424600F07FF9084305D00120A5
:1005F00004E020463946BDE8F08D0020054346EA78
:10060000E0762C4337430A986305E40AA0EB080020
:100610000022FD0A44EA47540A3002D50020014670
:10062000E9E7010510196941DDE90845001969414B
:10063000BDE8F04DA2E72DE9FE4F804681EA0300B8
:10064000C00F0C46009021F0004123F00045B8EBAC
:100650000200A94105D24046214690461C460B4661
:10066000024623F00040104347D0270DC7F30A008D
:10067000C3F30A510290401A019040286BDAC3F389
:10068000130040F4801B0098924620B10023D2EB67
:10069000030A63EB0B0B01985946C0F14002504628
:1006A00000F022F906460D4650465946019A00F0E0
:1006B0003AF910EB08006141002487EA115284EAFC
:1006C000E7731A4340D0009A62B3019A012A4FEAB5
:1006D000075215DC001B61EB02014FF0004202EAF9
:1006E0000752CDE90042001C41F5801132462B46ED
:1006F000FFF753FF03B0BDE8F08F40462146F9E70E
:10070000001B61EB0201001C41F5801300185B41E6
:100710002018A2F5001747EB030140EAD570B6197F
:100720006D4111E06D084FEA360645EAC0754FEAA3
:100730000752001B61EB0201001C41F580114908C2
:100740004FEA30000019514132462B4603B0BDE854
:10075000F04FFFF713BF0098012240000023D0EBB9
:10076000020263EBE073009821464FEAE074B8EBB5
:10077000000061EB0401E9E783F000435BE781F0EF
:10078000004158E72DE9F04D81EA030404F0004BE5
:1007900021F0004514464FF0000A23F0004150EAD2
:1007A000050220D054EA01021DD0C5F30A570246C3
:1007B000C5F31303C1F31300C1F30A5640F48015C7
:1007C00043F48013A7EB0608101BD64608F2FD3849
:1007D00073EB050002D308F1010801E092185B41B8
:1007E000B8F1000F03DA00200146BDE8F08D0020CB
:1007F0004FF48011064684460EE0171B73EB050785
:1008000005D3121B63EB050306434CEA010C4908B0
:100810004FEA300092185B4150EA0107EDD152EAED
:10082000030012D082EA040083EA0501084305D0E0
:10083000101BAB4106D20122002306E000224FF03C
:10084000004302E06FF0010253101AEB06004CEB7C
:10085000085110EB0A0041EB0B01BDE8F04DFFF72A
:100860008DBEC1F30A52C1F3130140F2FF3341F4CC
:1008700080119A4202DA00200146704740F2334369
:100880009A42A2F2334202DC524200F03CB800F03D
:100890002BB8000030B5041E71F1000404DB4FF0EA
:1008A0000044404264EB0101141E73F1000405DBB7
:1008B0001C464FF00043524263EB0403994208BFC9
:1008C000904230BD064C074D06E0E06840F0010361
:1008D00094E8070098471034AC42F6D3FFF70AFCBF
:1008E000347D0008547D0008202A04DB203A00FAF9
:1008F00002F1002070479140C2F1200320FA03F377
:10090000194390407047202A04DB203A21FA02F074
:100910000021704721FA02F3D040C2F12002914039
:10092000084319467047202A06DBCB17203A41FAC4
:1009300002F043EAE07306E041FA02F3D040C2F16C
:100940002002914008431946704700000048704754
:10095000147C00082DE9F05F8246007800271546D8
:100960008B460AF10104B946302801D09DB113E04D
:1009700014F8010B0127782803D0582801D045B17D
:100980000AE00DB1102D07D10027102514F8010B36
:1009900002E0082500E00A250026B0460EE005FB2F
:1009A000080005FB06F1012701EB10461FFA80F84D
:1009B000B6F5803F00D3B94614F8010B294600F084
:1009C00018F80028EBDABBF1000F05D00FB1641E58
:1009D00000E05446CBF80040B9F1000F06D003F018
:1009E00023FA02210160C81EBDE8F09F48EA0640D4
:1009F000FAE73A2800D2303820F02002412A01D309
:100A0000A2F13700884201D34FF0FF30704770B534
:100A10008C1810F8015B15F0070301D110F8013BA9
:100A20002A1106D110F8012B03E010F8016B01F830
:100A3000016B5B1EF9D12B0705D40023521E0DD488
:100A400001F8013BFAE710F8013BCB1A921C03E0D6
:100A500013F8015B01F8015B521EF9D5A142D8D30E
:100A6000002070BD08B50121084602F091F901216E
:100A70004FF4017002F0BCF90220ADF80000002034
:100A80008DF803006946024801F072F908BD0000C4
:100A90000008014010B5FFF7E5FF00F001F810BDB8
:100AA00000B591B0334800F09DFE334806903348BE
:100AB0000790002008900120099000200A908020D3
:100AC0000B9040000C9080000D9020200E900002B2
:100AD0000F900020109006A9264800F029FF012160
:100AE000244800F073FE002001908DF808000120DA
:100AF0008DF809004FF4602003900020049001203D
:100B00008DF8140001A91C484C3800F063F84FF42C
:100B1000404002F031F903230122114616484C38B7
:100B200000F080F8012114484C3800F034F801211D
:100B300011484C3800F024F80F484C3800F0CEF83B
:100B400000BF0D484C3800F03BF80028F9D10A48A6
:100B50004C3800F0D3F800BF07484C3800F026F8B6
:100B60000028F9D1012104484C3800F0BCF811B03C
:100B700000BD0000080002404C240140300000206D
:100B800021B1826842F00102826003E0826822F0B3
:100B900001028260704721B1826842F480728260F3
:100BA00003E0826822F48072826070470146002070
:100BB0008A6802F004020AB1012000E000207047B8
:100BC000014600208A6802F008020AB1012000E014
:100BD0000020704730B502460020002350680F4CBB
:100BE00020400D790C6844EA052420435060906849
:100BF0000B4C2040D1E902542C434D7944EA450482
:100C000020439060D06A20F470000C7C641EE4B233
:100C1000234340EA0350D06230BD0000FFFEF0FFE6
:100C2000FDF7F1FFF0B504460D4600200021092D27
:100C300011DDE068A5F10A0606EB4607072606FA6D
:100C400007F18843A5F10A0606EB460603FA06F10A
:100C50000843E0600CE0206905EB4507072606FA2B
:100C600007F1884305EB450603FA06F108432061C6
:100C7000072A0FDA606B561E06EB86071F2606FA58
:100C800007F18843561E06EB860605FA06F108436F
:100C9000606322E00D2A0FDA206BD61F06EB860771
:100CA0001F2606FA07F18843D61F06EB860605FACB
:100CB00006F10843206310E0E06AA2F10D0606EB9E
:100CC00086071F2606FA07F18843A2F10D0606EBF8
:100CD000860605FA06F10843E062F0BD816841F03E
:100CE00008018160704721B1826842F4A0028260ED
:100CF00003E0826822F4A00282607047816841F0BC
:100D000004018160704700002DE9FC4781463220D4
:100D100000F0C4F88DF80000332000F0BFF88DF823
:100D20000100012004F0E4FE342000F0B7F88DF853
:100D30000200352000F0B2F88DF80300012004F025
:100D4000D7FE362000F0AAF88DF80400372000F016
:100D5000A5F88DF80500012004F0CAFE9DF80000FA
:100D60009DF8011000EB012004B2002C01DA604272
:100D700004B22046FFF7CBFA07464FF033321E4B42
:100D8000FFF74EFA0546FFF713FBC9F800009DF880
:100D900002009DF8031000EB012004B2002C01DAE0
:100DA000604204B22046FFF7B2FA05464FF03332F4
:100DB000114BFFF735FA0746FFF7FAFAC9F80400B6
:100DC0009DF804009DF8051000EB012004B2002CF2
:100DD00001DA604204B22046FFF799FA05464FF067
:100DE0003332054BFFF71CFA0746FFF7E1FAC9F863
:100DF0000800BDE8FC87000033330F4010B502F057
:100E0000EBF800211E2000F073F800211F2000F0F5
:100E10006FF80021202000F06BF80021212000F065
:100E200067F80021222000F063F80021232000F061
:100E30005FF80121242000F05BF80121252000F05B
:100E400057F82B21262000F053F80021272000F02E
:100E50004FF80921282000F04BF8FF21292000F04D
:100E600047F880212A2000F043F80F212C2000F0C1
:100E70003FF808212D2000F03BF880212E2000F0C3
:100E800037F800212F2000F033F80B21312000F03B
:100E90002FF80021382000F02BF810BD10B50446C3
:100EA0000221114801F041F844F08000002242EA9A
:100EB00000210E4802F070F800BF02210B4802F03A
:100EC0005FF80028F9D000BF0121084802F058F867
:100ED0000028F9D00221044801F029F8034802F063
:100EE00058F8C0B210BD0000000C014000300140B5
:100EF00070B504460D4602210E4801F016F845EA89
:100F000004210D4802F048F800BF02210A4802F00F
:100F100037F80028F9D000BF0121074802F030F867
:100F20000028F9D00221034801F001F8024802F03C
:100F300030F870BD000C01400030014030B587B082
:100F400039A33DA248A14DA002F04AFF5848002114
:100F500002910391CDE9041000913C2332A201914A
:100F600035A141A001F040F9002858D150488088AF
:100F700082B24F480168042005F058FB4FF4FA6034
:100F800004F0B6FD0CE0042005F02DF804462246DE
:100F90004849042005F0C8F9012004F0A9FD03E048
:100FA000444800782028EED100BF4248007820282D
:100FB00002D10120404908703E4D002D2BD028461B
:100FC00001F0FEFD022826D1284601F0E2FC0628A9
:100FD0001CD2DFE800F003070B0F131737A002F055
:100FE000FFFE17E03AA002F0FBFE13E03FA002F084
:100FF000F7FE0FE046A002F0F3FE0BE04CA002F07B
:10100000EFFE07E053A002F0EBFE03E05CA002F06D
:10101000E7FE00BF00BF264801F04EF802E05FA0E7
:1010200002F0DEFE07B030BD446576696365436C4F
:1010300069656E74303035006A394E6947754561AF
:1010400049754B50566578702F4D557757416C5AFE
:101050004C446F78315951352B657158364475754C
:10106000502F6B3D00000000757466756574742F19
:101070006465766963655F3030310000B0D9B6C809
:10108000CCECB9A45F4465764C696E6B0D0A505286
:101090004F49443A2025732C09415549463A2025A9
:1010A000732C0944455649443A25730D0A00000043
:1010B000080C0020480B00204C000020546970737D
:1010C0003A09C1ACBDD3B3C9B9A60D0A00000000EE
:1010D0005741524E3A09C1ACBDD3CAA7B0DCA3BA3E
:1010E000D0ADD2E9B4EDCEF30D0A00005741524E17
:1010F0003A09C1ACBDD3CAA7B0DCA3BAB7C7B7A879
:10110000B5C4636C69656E7469640D0A0000000003
:101110005741524E3A09C1ACBDD3CAA7B0DCA3BAFD
:10112000B7FECEF1C6F7CAA7B0DC0D0A000000007A
:101130005741524E3A09C1ACBDD3CAA7B0DCA3BADD
:10114000D3C3BBA7C3FBBBF2C3DCC2EBB4EDCEF38E
:101150000D0A00005741524E3A09C1ACBDD3CAA78F
:10116000B0DCA3BAB7C7B7A8C1B4BDD328B1C8C84B
:10117000E7746F6B656EB7C7B7A8290D0A0000004A
:101180004552523A09C1ACBDD3CAA7B0DCA3BACE0E
:10119000B4D6AAB4EDCEF30D0A0000005741524E6A
:1011A0003A094D5154545F5061636B6574436F6EDF
:1011B0006E656374204661696C65640D0A00000009
:1011C0007FB504460D4616460F48012100220092C5
:1011D0003346CDE9012103902A4621460A2001F039
:1011E00051F980B90848808882B207480168042014
:1011F00005F01CFA05A002F0F3FD034800F05CFFC7
:10120000642004F075FC7FBD84060020B7A2CBCD1E
:10121000B3C9B9A60D0A00002DE9F0438BB007460B
:1012200000200790089009900A90069005900026EB
:101230000490002500248046384601F0C1FC064693
:10124000F01E0D2870D2DFE800F026707891ACCC4B
:10125000B4CCC0CCCCCC070006AA05A9384601F016
:1012600053FB0546B5B977A0DDE9051202F0B8FDDC
:1012700007AADDE9050100F071FF58B977A002F077
:10128000AFFD089882B20420079905F0CFF907A8AE
:1012900000F012FFA8E0774804AB06AA05A9009069
:1012A000384601F085FB0546002D3CD172A0DDE9F2
:1012B000051202F095FD0698FEF774FF81464A4636
:1012C00074480699FEF72EFF9DF81000012802D001
:1012D000022826D112E007A96648008801F06DF9BE
:1012E00058B96DA002F07CFD089882B204200799DD
:1012F00005F09CF907A800F0DFFE13E007A95D48A0
:10130000008801F0A2F958B969A002F069FD0898B7
:1013100082B20420079905F089F907A800F0CCFEF5
:1013200000E000BF00BF5FE05BE0384601F008FC72
:1013300010B965A002F054FD56E0384601F01EFCDD
:1013400098B969A002F04CFD07A90A2001F0A1F9A3
:1013500058B96BA002F044FD089882B204200799A6
:1013600005F064F907A800F0A7FE3DE041480188B8
:10137000384601F012FC98B967A002F031FD07A9C8
:101380000A2001F03EF958B969A002F029FD089839
:1013900082B20420079905F049F907A800F08CFEF5
:1013A00022E0384601F0DBFB10B968A002F018FD1E
:1013B0001AE0384601F03EFC18B96AA002F010FDB0
:1013C00002E06FA002F00CFD0EE0384601F04CFC8C
:1013D00018B972A002F004FD02E077A002F000FD4F
:1013E00002E04FF0FF3500BF00BF681C10B90BB022
:1013F000BDE8F0837D210698FEF7CAFE0446A4B13D
:10140000681C90B1641C06E014F8012B404608F1FA
:10141000010801A90A542078302802DB20783928F5
:10142000F2DD01A8FEF7EFFE80460F2E01D0032E5D
:1014300005D1059804F07EFD069804F07BFD00BF01
:10144000D5E70000636D6469643A2025732C20722F
:1014500065713A2025730D0A00000000546970730D
:101460003A0953656E6420436D64526573700D0ACA
:10147000000000008C020020746F7069633A202520
:10148000730D0A7061796C6F61643A2025730D0ADF
:1014900000000000C80B0020546970733A095365BE
:1014A0006E64205075626C69736841636B0D0A004D
:1014B000546970733A0953656E64205075626C69A3
:1014C00073685265630D0A00546970733A094D518F
:1014D0005454205075626C6973682053656E6420A3
:1014E0004F4B0D0A00000000546970733A095265B1
:1014F00076205075626C6973685265630D0A00004E
:10150000546970733A0953656E64205075626C6952
:10151000736852656C0D0A00546970733A0952651C
:1015200076205075626C69736852656C0D0A000014
:10153000546970733A0953656E64205075626C6922
:101540007368436F6D700D0A00000000546970737A
:101550003A09526576205075626C697368436F6D05
:10156000700D0A00546970733A094D515454205358
:101570007562736372696265204F4B0D0A0000004B
:10158000546970733A094D51545420537562736312
:1015900072696265204572720D0A000054697073A9
:1015A0003A094D51545420556E53756273637269F4
:1015B0006265204F4B0D0A00546970733A094D5112
:1015C000545420556E537562736372696265204589
:1015D00072720D0A00000000F0B585B004460D4699
:1015E00000260020019002900390049006E054F839
:1015F000261021A002F0F4FB701CC6B2AE42F6DB4E
:1016000001A82B46224600210090142001F065F825
:1016100040B9029882B20420019905F007F801A8A8
:1016200000F04AFD642004F063FA042004F0DBFCBF
:1016300007463A461649042004F076FE144800791D
:1016400030B1012808D002280AD0802810D10BE040
:1016500010A002F0C5FB0BE014A002F0C1FB07E0F4
:1016600018A002F0BDFB03E01CA002F0B9FB00BF14
:1016700000BF05B0F0BD000053756273637269620C
:101680006520546F7069633A2025730D0A000000CD
:10169000480B0020B6A9D4C4C8B7C8CFA3AC20510A
:1016A0006F53B5C8BCB6300D0A000000B6A9D4C44B
:1016B000C8B7C8CFA3AC20516F53B5C8BCB6310D65
:1016C0000A000000B6A9D4C4C8B7C8CFA3AC205143
:1016D0006F53B5C8BCB632200D0A0000B6A9D4C4F9
:1016E000CAA7B0DC200D0A0000BFFEE72DE9F041DB
:1016F000044620211F4800F018FC142004F0F8F9DB
:1017000020211C4800F013FC282004F00FFA2021AF
:10171000184800F001FC50BB00BF2021154800F024
:10172000FBFB0028F9D000BF2021124800F0F4FB99
:101730000028F9D100F020F8207000F01DF80646CE
:1017400000F01AF8607000F017F8074600F014F87F
:1017500005462021074800F0EAFB2078617808441C
:1017600030443844A84202D10120BDE8F081002075
:10177000FBE70000000C014070B5002400251EE0CE
:1017800000BF2021104800F0C7FB0028F9D021201D
:1017900004F0CCF920210C4800F0BEFB58B1012028
:1017A00000EB4400C4B200BF2021074800F0B4FBA6
:1017B0000028F9D101E06006040E681CC5B2082DAE
:1017C000DEDB204670BD0000000C014021B1026844
:1017D00042F00102026004E002684FF6FE731A4014
:1017E0000260704701684FF6FE72114001600021EF
:1017F000016041608160C1604B49884208D14A491B
:101800000839496841F00F01474A083A51608AE0B7
:1018100045491431884208D143490839496841F0A3
:10182000F001414A083A51607DE03F492831884241
:1018300008D13D490839496841F470613A4A083A8B
:10184000516070E038493C31884208D13649083946
:10185000496841F47041344A083A516063E03249C2
:101860005031884208D130490839496841F4702123
:101870002D4A083A516056E02B496431884208D11C
:1018800029490839496841F47001274A083A5160EA
:1018900049E025497831884208D123490839496807
:1018A00041F07061204A083A51603CE01F4988428B
:1018B00006D1011F096841F00F01021F116032E0DB
:1018C0001A491431884208D11849091F096841F0A2
:1018D000F001164A121F116025E014492831884290
:1018E00008D11249091F096841F470610F4A121F9B
:1018F000116018E00D493C31884208D10B49091F9D
:10190000096841F47041094A121F11600BE0074950
:101910005031884207D10549091F096841F47021F7
:10192000024A121F1160704708000240080402407A
:1019300010B50022026847F6F0739A430C6A8B6870
:1019400023430C6923434C6923438C692343CC69AB
:1019500023434C6A23438C6A23431A430260CB68B7
:1019600043600B6883604B68C36010BD7047000024
:1019700010B5012000F082F898B1012000F072F853
:101980000848006800F00100074908600846006840
:10199000012803D105A002F023FA02E00AA002F018
:1019A0001FFA10BD080801400C0000205468652093
:1019B00041434320504F57455220697320636C6F59
:1019C00073656420210D0A0054686520414343205B
:1019D000504F574552206973206F70656E656420C3
:1019E000210D0A0010B54FF4004000F047F8A0B1F7
:1019F0004FF4004000F036F80848006800F400405A
:101A00000749086008460068012803D105A002F0D4
:101A1000E7F902E00BA002F0E3F910BD080801406D
:101A2000100000205468652062617474657279202A
:101A3000766F6C74616765206973206C6F77202006
:101A4000210D0A0054686520626174746572792002
:101A5000766F6C74616765206973206869676820B8
:101A6000210D0A000149086070470000140401407C
:101A700010B500F061F800F097F810BD01460020A5
:101A80000022074B1B6803EA0102054B14331B6855
:101A90000B4013B10AB1012000E0002070470000A4
:101AA00000040140002123498279002A3AD00A46E5
:101AB000126803689A430B461A600A1D126803688D
:101AC0009A430B1D1A60027911440A6803681A438D
:101AD0000A60184A0832126803689A43154B0833A3
:101AE0001A601A1D126803689A43124B0C331A606D
:101AF0004279102A0ED11A1F126803681A430D4B3F
:101B000008331A601A1D126803681A43094B0C3314
:101B10001A600DE00749427911440A6803681A43C4
:101B20000A6005E0027911440A6803689A430A6072
:101B300070470000000401401FB50121052001F09D
:101B400057F94FF4E06001F00BF906208DF80C0016
:101B500000208DF80D0006208DF80E0001208DF874
:101B60000F0003A801F0C4F80120ADF808002820F8
:101B70008DF80B0002A90B4800F0FAF80021084686
:101B800000F0D6F80120009000208DF8040010200D
:101B90008DF8050001208DF806006846FFF782FFEA
:101BA0001FBD0000000801401FB50121052001F004
:101BB0001FF94FF4E06001F0D3F828208DF80C00F5
:101BC00000208DF80D0007208DF80E0001208DF803
:101BD0000F0003A801F08CF84FF40040ADF80800A6
:101BE00028208DF80B0002A90B4800F0C1F80F2146
:101BF000002000F09DF84FF40040009000208DF888
:101C0000040010208DF8050001208DF806006846BC
:101C1000FFF748FF1FBD00000008014008B5012183
:101C20001D2001F0E5F801213D4800F02DF94FF4A9
:101C30008070ADF8000001208DF8020048208DF87A
:101C400003006946374800F093F84FF40060ADF8A0
:101C5000000001208DF8020010208DF80300694675
:101C6000304800F085F82020ADF8000003208DF802
:101C7000020014208DF8030069462B4800F078F824
:101C80002021294800F053F90820ADF80000012078
:101C90008DF8020010208DF803006946224800F0FC
:101CA00067F80821204800F042F94FF48040ADF871
:101CB000000001208DF8020010208DF80300694615
:101CC0001A4800F055F84FF48041184800F02FF9F9
:101CD0004FF48050ADF8000001208DF80200102074
:101CE0008DF8030069460F4800F042F84FF4805128
:101CF0000C4800F01CF94FF40040ADF80000012042
:101D00008DF8020010208DF803006946074800F0A6
:101D10002FF84FF40041054800F009F908BD000014
:101D20000002300000080140000C0140001001409A
:101D300030B500228B071C0F0F2303FA04F20B4B64
:101D40008C1053F824309343084C8D1044F8253000
:101D500023468C1053F824308C07240F00FA04F427
:101D60002343024C8D1044F8253030BD080001405B
:101D70002DE9F04102460025002600200023002422
:101D8000002791F803C00CF00F0591F803C00CF088
:101D9000100CBCF1000F03D091F802C04CEA05050D
:101DA00091F800C0BCF1000F31D0146800202BE086
:101DB0004FF0010C0CFA00F3B1F800C00CEA030676
:101DC0009E4220D183004FF00F0C0CFA03F7BC4366
:101DD00005FA03FC4CEA040491F803C0BCF1280F97
:101DE00006D14FF0010C0CFA00FCC2F814C00AE056
:101DF00091F803C0BCF1480F05D14FF0010C0CFA6B
:101E000000FCC2F810C0401C0828D1D31460B1F8FF
:101E100000C0BCF1FF0F34DD546800202EE000F15B
:101E2000080C4FF0010808FA0CF3B1F800C00CEAF6
:101E300003069E4221D183004FF00F0C0CFA03F7EA
:101E4000BC4305FA03FC4CEA040491F803C0BCF15E
:101E5000280F05D100F1080C08FA0CF8C2F814801C
:101E600091F803C0BCF1480F07D100F1080C4FF006
:101E7000010808FA0CF8C2F81080401C0828CED3DC
:101E80005460BDE8F0810000F0B50A46002300244C
:101E90000021002500F00046B6F1004F02D11D4E92
:101EA000F16901E01B4E7168C0F3034583B200F491
:101EB0004016B6F5401F08D121F07061154E7668C6
:101EC00026F07066134F7E6012E000F48016B6F5BF
:101ED000801F06D1032606FA05F4A14341F0706184
:101EE00006E0460D360103FA06F6B14341F0706193
:101EF00022B1460D360103FA06F6314300F00046E2
:101F0000B6F1004F02D1034EF16101E0014E716064
:101F1000F0BD0000000001400246002093680B4025
:101F20000BB1012000E00020704741617047016162
:101F300070474FF6FF710180022181700421C1704A
:101F40007047000010B50F4800680F4908600D4841
:101F5000001D006848600B4808300068886008462B
:101F600000684008496800EB91000749896800EB68
:101F7000D100064908600846016805A001F030FF5D
:101F800010BD0000E8F7FF1F6C060020480000208D
:101F9000CEA8D2BB6964A3BA25640D0A0000000074
:101FA00000BFFEE710B5002001F0B4FE10BD10B573
:101FB000012001F0AFFE10BD70B504460025FFF70B
:101FC000F1FFC4F3074000F010F8C4F3072000F05D
:101FD0000CF804F0F80000F008F8002000F005F814
:101FE0000546FFF7E4FF284670BD10B504462046BD
:101FF00000F09EFF10BD70B504460D46FFF7D2FFFE
:10200000C4F30740FFF7F1FFC4F30720FFF7EDFF2C
:1020100004F0F801091DC8B2FFF7E7FF2846FFF7F3
:10202000E4FFFFF7C4FF70BD10B501F011F901F036
:1020300053F901F09BFC01F08BFB01F065FDFFF70C
:10204000EDFD01F079FE01F099FB01F0CDFA01F010
:10205000A3FCFFF777FF03F081FAFEF7CFFEFEF750
:1020600019FDFFF705FD00F04DFF05F09FFC05F0A1
:10207000CDFA05F003F90849084805F0FBFB08A074
:1020800001F0AEFE0121084600F092FE0121880712
:1020900001F03DF910BD00001101002009010020F0
:1020A000573535303020496E697420436F6D706C40
:1020B000657465210D0A000010B50446207B0128D7
:1020C00002D1206803F036FF002020606060A0602D
:1020D000207310BD0246002301230DE002F07F00B3
:1020E0000870D2092AB1087840F080000870491CB5
:1020F00001E0184670475B1C042BEFDD4FF0FF300A
:10210000F8E770B504460E460025206898B901200E
:102110002073304603F0DAFF20602068E0B1002031
:102120006060A66003E00020216848556D1CA0682F
:10213000A842F8D810E00220207303E000202168B4
:1021400048556D1CA068A842F8D800206060A068BF
:10215000B04201D20020206070BD00002DE9FF5F79
:1021600007460D4690463846FEF71CF886B22846CC
:10217000FEF718F81FFA80FA4FF00009B01D03F0BF
:10218000A5FF04461CB9012004B0BDE8F09FB11DB5
:102190002046FDF7E0FF12A0016821608088A08042
:1021A000324639462046FEF711F82846FDF7FAFF79
:1021B00083460120002100915B462A46CDE90208B2
:1021C000019121460A2000F05DF910B94FF0000995
:1021D00001E04FF00109204603F0ACFE4846D3E78A
:1021E00024637273702F00002DE9FF4F83B0824685
:1021F0008B469146159C0025002002900F270190E8
:102200004846FDF7CFFF8046B9F1000F03D101200A
:1022100007B0BDE8F08F08F10200384487B210988B
:1022200008B145F00205129878B145F004051298FE
:10223000FDF7B8FFC0B202901398FDF7B3FF014657
:102240000298001D0844384487B2119820B1012833
:1022500004D0022808D104E000BF07E045F00C05D7
:1022600004E045F0140501E00220D1E700BF149816
:1022700008B145F02405BAF1000F02D0BBF1000F00
:1022800001D10320C4E745F0C0055046FDF78AFFA1
:1022900006465846FDF786FF3044001D384487B295
:1022A00039462046FFF72DFF206808B90420AFE724
:1022B00039462068FDF74FFF10216268501C6060AE
:1022C00020688154D4E90023D118781FFFF702FF5A
:1022D00001900198002804DA2046FFF7EDFE052062
:1022E00096E7616801980844606000216268501CAC
:1022F00060602068815404216268501C606020681E
:1023000081544D216268501C6060206881545121C5
:102310006268501C60602068815454216268501CBF
:102320006060206881546268501C6060206881543D
:1023300004216268501C6060206881546168481CF8
:102340006060206845540698010A6268501C60600D
:10235000206881540698C1B26268501C6060206891
:102360008154C8F307216268501C60602068815462
:102370006268501C6060206800F80280D4E9001296
:10238000881842464946FDF721FF60684044606076
:1023900005F00400B8B30026139808B938A01390CC
:1023A0001298FDF7FFFE86B2310A6268501C606029
:1023B000206881546268501C606020688654D4E9AB
:1023C0000012881832461299FDF700FF6068304409
:1023D00060601398FDF7E6FE86B2310A6268501C11
:1023E0006060206881546268501C60602068865478
:1023F000D4E90012881832461399FDF7E7FE6068A9
:102400003044606000BF05F08000C8B15046FDF761
:10241000C9FE86B2310A6268501C6060206881542F
:102420006268501C606020688654D4E900128818E5
:1024300032465146FDF7CAFE60683044606000BF16
:1024400005F04000C8B15846FDF7ACFE86B2310A2F
:102450006268501C6060206881546268501C606033
:1024600020688654D4E90012881832465946FDF790
:10247000ADFE60683044606000BF0020C8E6000028
:10248000000000002DE9F84F8046894693469A46A1
:102490000D9C00270025002000900026606020731E
:1024A000A060B8F1000F02D10120BDE8F88F00252F
:1024B0000AE019F80500232803D019F805002B2895
:1024C00001D10220F1E76D1C19F805000028F0D1B8
:1024D00046F030060B9808B146F0010605EB0A00FD
:1024E000871C0A9820B1012804D002280AD105E0EF
:1024F00000BF09E046F00206BF1C05E046F00406F6
:10250000BF1C01E00320D0E700BFF91C2046FFF705
:10251000F8FD206808B90420C7E7F91C2068FDF71A
:102520001AFE6168481C606020684654D4E90002C5
:1025300081183846FFF7CEFD00900098002804DA95
:102540002046FFF7B9FD0520AFE761680098084411
:102550006060C5F307216268501C60602068815488
:102560006268501C606020688554D4E900128818A5
:102570002A464946FDF72AFE6068284460600A98AA
:1025800060B14FEA18216268501C60602068815475
:102590006268501C6060206800F80280BBF1000F88
:1025A00009D0D4E90012881852465946FDF70EFEAC
:1025B000606850446060002077E770B505460C46BF
:1025C00004212046FFF79DFD206808B9012070BD59
:1025D00062216268501C6060206881540221626838
:1025E000501C60602068815429126268501C606031
:1025F000206881546268501C606020688554002007
:10260000E5E770B505460C4604212046FFF779FD45
:10261000206808B9012070BD62216268501C6060AA
:102620002068815402216268501C606020688154D7
:1026300029126268501C6060206881546268501CD6
:102640006060206885540020E5E770B505460C46BB
:1026500004212046FFF755FD206808B9012070BD10
:1026600050216268501C60602068815402216268B9
:10267000501C60602068815429126268501C6060A0
:10268000206881546268501C606020688554002076
:10269000E5E770B505460C4604212046FFF731FDFD
:1026A000206808B9012070BD62216268501C60601A
:1026B0002068815402216268501C60602068815447
:1026C00029126268501C6060206881546268501C46
:1026D0006060206885540020E5E72DE9FF5F8046B3
:1026E000174699460E9C0026B246B3460025B8F11F
:1026F000000F03D1012004B0BDE8F09F0BE057F8B4
:10270000250008B90220F6E757F82500FDF74AFD35
:102710000644681CC5B24D45F1DB09EB4900801C3D
:1027200000EB060A0AF105012046FFF7EAFC2068E3
:1027300008B90320DFE782216268501C60602068CE
:102740008154D4E9000281185046FFF7C3FC834648
:10275000BBF1000F04DA2046FFF7AEFC0420CAE705
:102760006068584460604FEA18216268501C6060DD
:10277000206881546268501C6060206800F8028004
:10278000002524E057F82500FDF70CFD0646C6F3AA
:1027900007216268501C6060206881546268501C88
:1027A000606020688654D4E90023D01857F82510BB
:1027B0003246FDF70BFD6068304460600198C1B29D
:1027C0006268501C606020688154681CC5B24D4529
:1027D000D8DB00208FE72DE9F05F80460F46914659
:1027E0001C460026B246B3460025B8F1000F02D1C0
:1027F0000120BDE8F09F0BE057F8250008B9022042
:10280000F7E757F82500FDF7CDFC0644681CC5B274
:102810004D45F1DB022000EB490000EB060A0AF10E
:1028200005012046FFF76DFC206808B90320E0E7AA
:10283000A2216268501C606020688154D4E90002C3
:1028400081185046FFF746FC8346BBF1000F04DABF
:102850002046FFF731FC0420CBE7606858446060F5
:102860004FEA18216268501C6060206881546268D9
:10287000501C6060206800F8028000251DE057F8B9
:102880002500FDF78FFC0646C6F307216268501C41
:102890006060206881546268501C606020688654C3
:1028A000D4E90023D01857F825103246FDF78EFCE6
:1028B000606830446060681CC5B24D45DFDB0020B5
:1028C00097E7F0B504460D46264601230020106028
:1028D000002114E0775C07F07F07106807FB030016
:1028E0001060705C00F0800008B9481CF0BDDB018E
:1028F000B3F5001F02D36FF00100F7E7491CA942AE
:10290000E8DB4FF0FF30F1E72DE9F84307460C46CE
:1029100015462F21F81CFDF73BFC064600200090D1
:10292000804616B90120BDE8F883761C6A4604216A
:10293000781CFFF7C6FF252003F0C8FB2060206845
:1029400008B90220EFE725212068FDF704FC2422C6
:1029500031462068FDF7E6FB243600982C381FFA34
:1029600080F808F1010003F0B1FB2860286820B965
:10297000206803F0DFFA0320D5E708F10101286899
:10298000FDF7E9FB424631462868FDF7CBFB002006
:10299000C9E701464878022801D0012070478878AD
:1029A00010B18878012801D1C878F7E7FF20F5E752
:1029B0002DE9FC5F81460D4616469A4699F80000BF
:1029C00000F00F0B002001900BF0080000904FF07A
:1029D00000080024CBF341008AF8000001AA04217A
:1029E00009F10100FFF76DFF4844471C01980228D8
:1029F00002D30BF0010010B1FF20BDE8FC9F7878F6
:102A0000397840EA0124A01C0199814201D2FF20BB
:102A1000F3E749A1B81CFDF7A9FB08B10F20ECE7CB
:102A20009AF8000020B1012833D0022872D131E099
:102A3000009808B1FF20E0E7601C03F047FB286026
:102A4000286808B9FF20D8E7611C2868FDF783FBD8
:102A50002246B91C2868FDF765FB0198801EA0EB93
:102A6000040808F1010003F031FB3060306820B940
:102A7000286803F05FFAFF20BFE708F10101306822
:102A8000FDF769FBBA1C111942463068FDF74AFB95
:102A900042E000BFA01C0199884201D9FF20ACE7A9
:102AA000E01C395CA01C385C41EA00210C980180D4
:102AB0000C9808B9FF20A0E7601C03F007FB286012
:102AC000286808B9FF2098E7611C2868FDF743FBD8
:102AD0002246B91C2868FDF725FB0198001FA0EBD2
:102AE000040808F1010003F0F1FA3060306820B901
:102AF000286803F01FFAFF207FE708F10101306822
:102B0000FDF729FB3A1D111942463068FDF70AFB13
:102B100002E0FFE7FF2070E700BF2B212846FDF70A
:102B200037FB20B923212846FDF732FB08B1FF20EF
:102B300063E7002061E70000246372657100000014
:102B400001464878022801D001207047887820B9D2
:102B5000C8780A2801D10020F7E70120F5E70146EF
:102B60004878022801D001207047887820B9C878B9
:102B70000A2801D10020F7E70120F5E7014648784F
:102B8000022801D001207047887820B9C8780A2827
:102B900001D10020F7E70120F5E70246507802282E
:102BA00001D0012070479078B0EB112F05D1D0787B
:102BB000CBB2984201D10020F4E70120F2E70000F7
:102BC000F8B50446FF2720780511012D01DB0E2DF5
:102BD00001DD3846F8BD032D24D1002000906A465F
:102BE0000421601CFFF76DFE2044461C009802285B
:102BF00003D3207800F0010008B1FF20EAE77078E5
:102C0000317840EA0120801C0099884201D9FF20D8
:102C1000E0E706A1B01CFDF7A9FA08B10F2700E014
:102C2000032700E02F463846D4E70000246372658E
:102C3000710000000146FF208A78A2B9CA78142AE0
:102C400011D10A7932B1012A05D0022A04D0802A92
:102C500006D103E000BF00BF002003E0012001E037
:102C6000022000BF00BF7047014601208A781AB9D0
:102C7000CA781E2A00D10020704700007FB50546A3
:102C80000E46002000900190029003906B46324661
:102C900029460A20FFF79FFDD0B9019882B204208F
:102CA000009903F0C3FC642002F022FF042003F02B
:102CB0009AF9044622460749042003F035FB0548EB
:102CC00000780B21B1EB201F02D103A001F088F89E
:102CD0007FBD0000480B0020B3C9B9A6C8A1CFFB37
:102CE000B6A9D4C40D0A000000BFFEE7704700007B
:102CF00070B5002100230F22C47804B3154C24685A
:102D000004F4E064C4F5E064210AC1F10403CA409C
:102D1000447804FA03F184781440214309010E4CED
:102D20000678A155047804F01F050124AC4005780D
:102D30006D11AD0005F1E025C5F8004109E004780A
:102D400004F01F050124AC40044D0678761145F8C7
:102D5000264070BD0CED00E000E400E080E100E002
:102D600002490143024A1160704700000000FA0561
:102D70000CED00E07047000001460020034A506857
:102D800020F44040084350607047000000100240AB
:102D900029B1064A52690243044B5A6104E0034ACE
:102DA00052698243014B5A61704700000010024093
:102DB00029B1064AD2690243044BDA6104E0034AAE
:102DC000D2698243014BDA61704700000010024073
:102DD00029B1064A12690243044B1A6104E0034A0E
:102DE00012698243014B1A617047000000100240D3
:102DF00029B1064A92690243044B9A6104E0034AEE
:102E000092698243014B9A617047000000100240B2
:102E100029B1064AD2680243044BDA6004E0034A4F
:102E2000D2688243014BDA60704700000010024014
:102E300030B500210022002400232D4D6D6805F0DF
:102E40000C0121B1042905D0082923D105E0294D21
:102E5000056022E0274D05601FE0254D6D6805F4F3
:102E60007012234D6D6805F48034022505EB924203
:102E70001CB9214D554305600BE01D4D6D6805F4EF
:102E800000351DB11C4D5543056002E0194D5543F9
:102E9000056002E0174D056000BF00BF144D6D686E
:102EA00005F0F0010909154D6B5C0568DD404560D2
:102EB0000F4D6D6805F4E061090A104D6B5C4568C3
:102EC000DD4085600A4D6D6805F46051C90A0B4DFF
:102ED0006B5C4568DD40C560054D6D6805F440419B
:102EE000890B074D6B5CC568B5FBF3F5056130BD1B
:102EF0000010024000127A0000093D00CA000020C4
:102F0000DA00002010B54FF400610848FFF70DF813
:102F1000022002F00BFE4FF400610448FFF707F8AF
:102F20004FF4C86002F0E4FD10BD0000000801404D
:102F300010B5044600BF02210A4800F021F800281D
:102F4000F9D02146074800F027F800BF01210548C5
:102F500000F016F80028F9D0024800F01AF8C0B2C4
:102F600010BD00000038004021B1028842F040024C
:102F7000028004E002884FF6BF731A400280704757
:102F80000246002013890B400BB1012000E0002015
:102F900070470146888970478181704710B50022CB
:102FA000028802F441520B884C8823438C882343C7
:102FB000CC8823430C8923434C8923438C892343A6
:102FC000CC8923431A430280838B4FF2FF74234042
:102FD00083830B8A038210BD00B587B001210D20C9
:102FE000FFF706FF01210803FFF702FF06A8FEF71F
:102FF000A0FF0220ADF8180010208DF81B00032060
:103000008DF81A0006A91F48FEF7B2FE02211D48DE
:10301000FEF78DFF06A8FEF78CFFE020ADF8180044
:1030200018208DF81B0003208DF81A0006A91648F9
:10303000FEF79EFE0020ADF804004FF48270ADF85C
:1030400006004FF40060ADF808000220ADF80A0059
:103050000120ADF80C004002ADF80E003820ADF8AC
:1030600010000020ADF812000720ADF8140001A9EF
:103070000648FFF793FF01210448FFF775FF07B0EB
:1030800000BD0000000C014000080140003001407C
:10309000704710B500F002F810BD00000CB500201C
:1030A000019000903348006840F480303149086056
:1030B00000BF3048006800F4003000900198401CC8
:1030C0000190009818B90198B0F5A06FF1D1294886
:1030D000006800F4003010B10120009001E00020F1
:1030E00000900098012843D12348006840F0100068
:1030F000214908600846006820F00300086008467F
:10310000006840F0020008601A48406819494860A9
:103110000846406848600846406840F4806048605F
:103120000846406820F47C1048600846406840F437
:10313000E81048600846006840F08070086000BFF2
:103140000C48006800F000700028F9D00948406879
:1031500020F00300074948600846406840F002003C
:10316000486000BF0348406800F00C000828F9D10F
:103170000CBD00000010024000200240012080F33E
:10318000138800BF00BF0748006800F4E0600649EC
:103190000843001D03490860BFF34F8F00BF00BF05
:1031A000FEE700000CED00E00000FA0570470000AB
:1031B00010B51348006840F0010011490860084646
:1031C0004068104908400E494860084600680E49AA
:1031D00008400B4908600846006820F48020086019
:1031E0000846406820F4FE0048604FF41F008860E5
:1031F000FFF74FFF4FF000600449086010BD00006A
:10320000001002400000FFF8FFFFF6FE08ED00E0AE
:103210004FF0E021096921F004014FF0E022116133
:10322000C21700EB5272C2F3C702074B1A7019465D
:10323000097801EB4102C2EBC1114FF6FF7202EABD
:10324000C101024A118070471A0000201C000020B2
:103250000EB501210846FFF7ABFD4FF0804000F0AE
:1032600063F86420ADF804004720ADF800000020AA
:10327000ADF8020069464FF0804000F063F901218B
:10328000880700F03EF801221146900700F051F93E
:103290000121880700F03BF800210120FFF788FD9D
:1032A0000EBD000010B50121880700F031F978B19A
:1032B0000121880700F028F8002407E0054850F8AD
:1032C0002400401C034941F82400641C122CF5DB47
:1032D00010BD0000FC02002008B54FF4E060FFF7CD
:1032E0003FFD1C208DF8000000208DF80100042017
:1032F0008DF8020001208DF803006846FFF7F8FC06
:1033000008BDCA4302827047CA430282704721B196
:10331000028842F00102028004E002884FF6FE7348
:103320001A4002807047000010B504466848844285
:1033300008D10121C014FFF76BFD0021E014FFF755
:1033400067FDC4E0B4F1804F08D101210846FFF7C2
:103350003FFD00210120FFF73BFDB8E05D488442BE
:1033600008D101210220FFF733FD00210220FFF7E1
:103370002FFDACE05848844208D101210420FFF71A
:1033800027FD00210420FFF723FDA0E053488442DD
:1033900008D101210820FFF71BFD00210820FFF7BD
:1033A00017FD94E04E48844208D101211020FFF718
:1033B0000FFD00211020FFF70BFD88E049488442F3
:1033C00008D101212020FFF703FD00212020FFF775
:1033D000FFFC7CE04448844208D101214014FFF7FF
:1033E00017FD00216014FFF713FD70E03F48844291
:1033F00009D10121C804FFF70BFD00214FF4002083
:10340000FFF706FD63E03A48844209D1012108052F
:10341000FFF7FEFC00214FF48010FFF7F9FC56E0A7
:103420003448844209D101214805FFF7F1FC00210D
:103430004FF40010FFF7ECFC49E02F48844208D11C
:1034400001214020FFF7C4FC00214020FFF7C0FC11
:103450003DE02A48844208D101218020FFF7B8FCD2
:1034600000218020FFF7B4FC31E02548844208D1D8
:1034700001218015FFF7ACFC0021A015FFF7A8FC87
:1034800025E02048844209D101210804FFF7C0FC4F
:1034900000214FF48030FFF7BBFC18E01A4884424B
:1034A00009D101214804FFF7B3FC00214FF400309B
:1034B000FFF7AEFC0BE01548844208D101218804D7
:1034C000FFF7A6FC00214FF48020FFF7A1FC10BD00
:1034D000002C01400004004000080040000C0040A7
:1034E000001000400014004000340140004C014036
:1034F000005001400054014000180040001C0040F2
:1035000000200040004001400044014000480140CC
:1035100030B50246002000230024158A05EA010385
:10352000958905EA010413B10CB1012000E00020E7
:1035300030BD1AB183890B43838102E083898B43B9
:1035400083817047002202881D4B98420ED01D4B8C
:1035500098420BD0B0F1804F08D01B4B984205D059
:103560001A4B984202D01A4B984204D14FF68F73EF
:103570001A404B881A43174B984207D0164B984273
:1035800004D04FF6FF431A40CB881A4302808B8841
:1035900083850B8803850A4B98420BD0094B9842D0
:1035A00008D00E4B984205D00D4B984202D00D4BDF
:1035B000984201D10B7A0386012383827047000071
:1035C000002C01400034014000040040000800408D
:1035D000000C00400010004000140040004001407A
:1035E000004401400048014000B585B0012144F28B
:1035F0000500FFF7FDFB18208DF803004FF4007065
:10360000ADF8000003208DF8020069461748FEF768
:10361000AFFB04208DF803000002ADF800006946FE
:103620001248FEF7A5FB4FF4E13001900020ADF801
:103630000800ADF80A00ADF80C00ADF810000C2041
:10364000ADF80E0001A90A4800F0E4FA012240F2A8
:103650002551074800F0B8FA0121054800F071FA39
:103660004021034800F064FA05B000BD00080140A5
:103670000038014010B5002440F225512D4800F0DB
:1036800079FA002854D040F225512A4800F050FA27
:10369000284800F02BFBC4B22748007800B110BDC9
:1036A0002648007880B92648007868B9662C0BD186
:1036B00022490878411C214A1170224941F82040D2
:1036C00001201F490870EAE71C4800781A2814DA1C
:1036D0001B480078012810D1184800781A2804DA0D
:1036E0001948007820441849087014490878411C8A
:1036F000124A1170134941F82040104800781A28E6
:1037000016D11048406E99280BD101200A49087043
:1037100000200D49087001200C490870002007495D
:1037200008700020054908700549087006490870AE
:1037300000BFB4E700380140280000202A00002024
:103740002B0000203C0500202C0000202900002038
:1037500008B54FF4E060FFF703FB25208DF800006B
:1037600000208DF8010005208DF8020001208DF861
:1037700003006846FFF7BCFA08BD000000B585B03D
:1037800001210420FFF734FB01214804FFF710FB5F
:103790000420ADF8100018208DF8130003208DF8D8
:1037A000120004A91748FEF7E3FA0820ADF810004C
:1037B00004208DF8130004A91248FEF7D9FA4FF43B
:1037C000E13000900020ADF80400ADF80600ADF83F
:1037D0000800ADF80C000C20ADF80A00012240F200
:1037E0002551094800F0F0F96946074800F012FA3F
:1037F0000121054800F0A5F94021034800F098F99F
:1038000005B000BD000801400044004010B5002490
:1038100040F225514A4800F0ADF900287ED0002141
:103820000120FFF7C5FA4FF480414648FEF77FFBC1
:1038300008214548FEF779FB4FF400414148FEF767
:1038400076FB4FF480514148FEF76FFB0120404961
:1038500008703B4800F04AFAC4B23E48007800B114
:1038600010BD3D48007880B93C48007868B9242CE8
:103870000BD139490878411C374A1170384941F851
:103880002040012035490870EAE7334800780A28CB
:1038900014DA32480078012810D12F48007809281E
:1038A00004DA3048007820442E4908702A49087804
:1038B000411C294A11702A4941F8204026480078C5
:1038C0000A2835D126480068254949680844244912
:1038D000896808442249C96808442149096908449B
:1038E0001F49496908441E49896908441C49C96936
:1038F00008441B49096A08441A4908701848406A74
:10390000097888420DD1012012490870002015491C
:103910000870012014490870002000E008E00E49FA
:10392000087000200C4908700C4908700D49087097
:1039300040F22551024800F0FBF800BF90E700007C
:103940000044004000100140000C0140000801400C
:10395000870000201500002017000020180000201C
:10396000BC020020190000201600002008B54FF40A
:10397000E060FFF7F5F926208DF8000000208DF8B3
:1039800001000A208DF8020001208DF8030068462E
:10399000FFF7AEF908BD000000B585B00121082091
:1039A000FFF726FA01218804FFF702FA18208DF8A4
:1039B00003004FF48060ADF8000003208DF8020092
:1039C00069461848FEF7D4F904208DF80300400238
:1039D000ADF8000069461348FEF7CAF94FF4E1302C
:1039E00001900020ADF80800ADF80A00ADF80C0019
:1039F000ADF810000C20ADF80E00012240F2255168
:103A0000094800F0E1F801A9074800F003F9012195
:103A1000054800F096F84021034800F089F805B009
:103A200000BD0000000C01400048004010B500241B
:103A300040F225512D4800F09DF8002854D040F266
:103A400025512A4800F074F8284800F04FF9C4B214
:103A50002748007800B110BD2648007880B9264874
:103A6000007868B9662C0BD122490878411C214A9C
:103A70001170224941F8204001201F490870EAE7EF
:103A80001C4800781A2814DA1B480078012810D145
:103A9000184800781A2804DA194800782044184990
:103AA000087014490878411C124A1170134941F8F2
:103AB0002040104800781A2816D11048406E9928E6
:103AC0000BD101200A49087000200D49087001201F
:103AD0000C4908700020074908700020054908704B
:103AE000054908700649087000BFB4E70048004067
:103AF0002000002022000020230000200C040020D1
:103B0000240000202100002008B54FF4E060FFF7FA
:103B100027F927208DF8000000208DF801000120F2
:103B20008DF802008DF803006846FFF7E1F808BD44
:103B300001F40072B2F5007F00D100BFCA430280D9
:103B4000704721B1828942F40052828104E0828967
:103B50004DF6FF731A408281704702460020B1F58E
:103B6000007F00D100BF13880B400BB1012000E0A3
:103B70000020704770B50246002400230025002075
:103B800040F66A16B14200D100BFC1F3421501F000
:103B90001F03012606FA03F3012D02D19689334053
:103BA00006E0022D02D1168A334001E0968A3340A6
:103BB0000C12012606FA04F41688344013B10CB135
:103BC000012000E0002070BDF0B50346002400266F
:103BD0000025002040F66A17B94200D100BF184600
:103BE000C1F3421401F01F06012707FA06F5012C64
:103BF00001D10C3004E0022C01D1103000E014306F
:103C00001AB107682F43076002E00768AF430760F7
:103C1000F0BD00002DE9F04786B005460E460024B1
:103C2000A24600BFA1460027B08900B100BF2F46C1
:103C30002C8A4CF6FF700440F08804432C82AC8937
:103C40004EF6F3100440B088318908437189084367
:103C50000443AC81AC8A4FF6FF400440B089044372
:103C6000AC8201A8FFF7E4F81F48874202D1DDF8D3
:103C700010A001E0DDF80CA0A88900F4004040B1DC
:103C80000AEBCA0000EB0A1031684900B0FBF1F8FA
:103C900007E00AEBCA0000EB0A1031688900B0FBAC
:103CA000F1F86420B8FBF0F004012009642101FB65
:103CB0001089A88900F4004040B1322000EBC9000F
:103CC000B0FBF1F000F00700044308E0322000EB05
:103CD00009106421B0FBF1F000F00F0004432C81C7
:103CE00006B0BDE8F0870000003801400146888832
:103CF000C0F308007047C1F308028280704700BF1C
:103D0000028802F08002002AFAD08180704700BF4A
:103D1000FEE7000010B504462CB94FF48051054869
:103D2000FEF703F905E0012C03D121030148FEF75A
:103D3000FEF810BD000C014000B587B001218803DA
:103D4000FFF736F801210920FFF752F84FF46040E1
:103D5000ADF8040003208DF8060018208DF8070048
:103D600001A91D48FEF704F84FF48050ADF8040097
:103D700003208DF8060010208DF8070001A91648D1
:103D8000FDF7F6FF4FF480511348FEF7D0F80020FE
:103D9000ADF808004FF48270ADF80A000020ADF8CD
:103DA0000C00ADF80E00ADF810004FF40070ADF847
:103DB00012000820ADF814000020ADF8160007200E
:103DC000ADF8180002A90548FFF7E8F801210348FB
:103DD000FFF7CAF807B000BD000C014000380040F2
:103DE0000FB4054B10B503A9044A029800F0E2F89D
:103DF00010BC5DF814FB0000115F0008AC0200204D
:103E00000FB4084B10B504A902AA039800F0D2F829
:103E1000044602A9002000F064FC204610BC5DF8B6
:103E200014FB0000E346000800487047B802002079
:103E300002E008C8121F08C1002AFAD17047704773
:103E4000002001E001C1121F002AFBD170470000D1
:103E50002DE9FF5FDDE90220010DDDF838B00243F6
:103E600018D044F61050A1F2FF3141430D140F98C1
:103E7000012820D0A5EB0B00401C5FEA000A4FF0A0
:103E80000004474EDFF81C91A046504616D5CAF1F3
:103E9000000728E00F98012443A2012808D0002140
:103EA00000980F9BC0E90021C0E90243BDE8FF9FD5
:103EB0006FEA0B01F4E7CBF10000DEE7074612E002
:103EC000F80707D02246334640464946FCF7A8F992
:103ED000804689462246334610461946FCF7A0F92B
:103EE00004460E467F10002FEAD1DDE90201BAF147
:103EF000000F42464B4602DAFCF792F901E0FCF76C
:103F000041FC04460E460022284BFCF7C3FC03D8B4
:103F10004FF0FF30014607E00022254B2046314696
:103F2000FCF789FBFCF79DFC102409E0002C0ADB60
:103F30000A220023FCF782FA019B30321A55641ED4
:103F400050EA0102F2D1641C019AC4F11103144435
:103F50000F9A012A03D0012208430DD10AE0084339
:103F600004D000204FF0110B0F9080E7A3EB0B055E
:103F70006D1E0DE05B4504DD4FF0000205F101050B
:103F800004E003DA4FF00002A5F10105002AECD0AD
:103F900000980F99C0E90231C0E9004586E70000AA
:103FA000000024400000F03F300000000000F0431B
:103FB0000000E03F2DE9FF4F95B09B46894606463D
:103FC00000250FE2252877D100242746F84A012151
:103FD000059400E0044316F8013F203B01FA03F08A
:103FE0001042F7D130782A2811D06FF02F033078A3
:103FF000A0F13002092A16D8059A44F0020402EB17
:10400000820203EB42021044761C0590EFE759F858
:10401000042B0592002A03DA504244F40054059020
:1040200044F00204761C30782E2816D116F8010FC1
:1040300044F004042A280DD06FF02F023078A0F14C
:104040003003092B09D807EB870302EB4303C7189A
:10405000761CF3E759F8047B761C30786C280FD077
:1040600006DC4C2817D068280DD06A2814D104E04B
:10407000742810D07A280FD10DE044F400140AE01F
:1040800044F4801401E044F440147278824202D176
:1040900004F58014761C761C307866280BD013DC6F
:1040A000582877D009DC002875D04528F6D0462856
:1040B000F4D047281AD19DE118E0632835D0642850
:1040C00079D0652812D195E1702873D008DC672873
:1040D000F1D069286FD06E280DD06F2806D1B5E0D9
:1040E00073282CD0752875D0782874D05A46179923
:1040F00090476D1C75E1C4F30250022809D00328D3
:104100000DD0D9F8001004280DD00D6009F1040974
:1041100067E1D9F80010EA17C1E90052F6E7D9F8CB
:1041200000100D80F2E70D70F0E719F8041B8DF810
:10413000001000208DF80100EA46012003E059F844
:1041400004AB4FF0FF3061074FF0000102D40DE0E7
:1041500008F101018846B9420FDA8045F8DB1AF808
:1041600008100029F4D108E008F1010188468142D5
:10417000FADB1AF808100029F6D105985B46A0EB87
:10418000080721463846179A00F094FA284400EBB5
:10419000080507E04DE029E10DE01AF8010B5A4649
:1041A00017999047B8F10108F7D25B462146384687
:1041B000179A13E142E00A220092C4F302524FF030
:1041C000000A022A08D059F804CB032A4FEAEC71FE
:1041D0000AD00DE029E02AE009F1070121F00702E9
:1041E000F2E802C1914609E00FFA8CFC4FEAEC714B
:1041F000042A03D14FFA8CFC4FEAEC71002907DA4C
:104200000A460021DCF1000C61EB02012D2202E0E4
:10421000220504D52B228DF80420012203E0E207B9
:1042200001D02022F7E7904659E00A2102E010224F
:104230000DE010214FF0000A00910BE010224FF02A
:10424000000A44F004040827009203E008224FF01B
:10425000000A0092C4F30252022A05D059F804CB96
:104260000021032A08D009E009F1070121F0070223
:10427000F2E802C1914605E01FFA8CFC042A01D144
:104280000CF0FF0C4FF00008220728D5702806D04C
:10429000009B83F0100353EA0A0305D00EE040228E
:1042A0008DF80420012208E05CEA010206D03022E9
:1042B0008DF804208DF8050002229046009B83F0C3
:1042C000080353EA0A030AD15CEA010201D162073A
:1042D00005D530228DF804204FF001087F1E5828A4
:1042E00004D034A003900EA802900DE036A0F9E7A8
:1042F00053466046009AFCF7A1F884460398825C16
:104300000298401E029002705CEA0100F0D102980F
:1043100006A9081A00F1200A600702D524F48034A7
:1043200000E00127574502DDA7EB0A0000E000206E
:1043300000EB0A01009005984144401A0590E00303
:1043400006D45B462146179A059800F0B3F9054458
:10435000002706E001A85A46C05D179990476D1CDA
:104360007F1C4745F6DBE0030CD55B462146179AD8
:10437000059800F09FF9054404E030205A4617994B
:1043800090476D1C0099481E00900029F5DC08E05C
:10439000029802995A460078491C02911799904751
:1043A0006D1CBAF10001AAF1010AF1DC65E100001F
:1043B00009280100303132333435363738396162FB
:1043C00063646566000000003031323334353637BF
:1043D00038394142434445460000000000F058F996
:1043E0000544761C307800287FF4ECAD19B02846DF
:1043F000BDE8F08F620700D4062709F1070222F01A
:10440000070CFCE80223E14603F000485FEA080CD1
:1044100002D00FF2702C0DE05FEA045C02D50FF2BF
:10442000682C07E05FEAC47C02D00FF2602C01E048
:10443000AFF2700C4FF0FF3823F00043CDF850C0BE
:1044400065280CD006DC452809D046281DD0472811
:104450003DD13DE0662818D067287ED138E00021A4
:10446000112F01DB112000E0781CCDE9000106A925
:104470000EA8FFF7EDFCDDE90F010E9A0391002174
:10448000009207F1010A04914DE04FF000400097BF
:10449000CDE9011006A90EA8FFF7DAFCDDE90F024D
:1044A00003920E9B11990022DDF80CA00093049258
:1044B00011B9791C00EB010AB7EB0A0004D4C0F172
:1044C000FF3007F1010A0490AAEB0700019044E0D5
:1044D000012F00DA01270021112F01DD112000E05A
:1044E0003846CDE9000106A90EA8FFF7B1FCDDE9C9
:1044F0000F010E9A0391002104910092BA46210700
:104500000CD40399514500DA8A46BAF1010F05DD52
:10451000009AAAF10101515C302908D0B84202DAB0
:1045200010F1040F06DA0121CDE9011015E0AAF11E
:104530000101E9E7002805DC049901440491AAEB94
:10454000000102E0411C514500DD8A460499401AF1
:10455000401C01904FF000400290200704D40198C5
:10456000504501DBCDF8048000208DF84F00029803
:104570000DF14F07B0F1004F25D02B200E9002987F
:104580004FF0020800280CDA404202902D200E90D5
:1045900007E00A210298FBF73BFF3031029007F851
:1045A000011DB8F10001A8F10108F2DC0298002811
:1045B000EFD1791E0E980870307800F0200040F09E
:1045C000450007F8020D12A8C01B00F10708149857
:1045D000007800B1012000EB0A01019801EBE071C5
:1045E00005984144401A401E0590E00306D45B46FE
:1045F0002146179A059800F05DF805441498007854
:1046000018B15A46179990476D1CE00324D55B46B4
:104610002146179A059800F04DF805441CE00498CF
:10462000002807DBDDE90301884203DD0098405CD8
:10463000179901E0179930205A469047049805F1E0
:104640000105401C04900198401E019004D12E20C9
:104650005A46179990476D1CBAF10001AAF1010A58
:10466000DDDC05E017F8010B5A46179990476D1CE1
:10467000B8F10001A8F10108F4DC5B462146179A65
:104680000598ABE62D0000002B0000002000000084
:104690002DE9F041044600251E461746880404D43F
:1046A00005E039462020B0476D1C641EF9D5284628
:1046B000BDE8F0812DE9F041044600251E469046F4
:1046C000C80301D5302700E02027880404D505E081
:1046D00041463846B0476D1C641EF9D52846BDE8F2
:1046E000F0810A68531C0B601070704710B503F01E
:1046F0005DF900F0D1FF642001F0FAF9FB48007881
:10470000012804D101F0A4FA642001F0F1F9F8487D
:104710000088012813D10020F5490880FEF7F2FB3C
:1047200003F044F902F072FF02F01EFE01F01CFAE1
:10473000F049F14803F09EF80120F0490860F04884
:10474000406C46F2A811884264D30020EC494864CA
:10475000EC480078002830D1002305E0EA48C15C2D
:10476000EA48FFF7CCFA5B1C142BF7DB0120E54984
:104770000870E7480078012812D10020E449087049
:10478000E448806BE4490870E248C06BE349087074
:10479000E048006CE2490870DE48406CE14908706E
:1047A000002407E01121D948FFF7A9FA642001F09D
:1047B000BDF9641C142CF5DB2CE0002305E0D24885
:1047C000C15CD948FFF79BFA5B1C142BF7DB002078
:1047D000CC490870D548007801281BD10020D34966
:1047E0000870D348806BD3490870D148C06BD24958
:1047F0000870CF48006CD1490870CD48406CD04952
:104800000870002304E01121C048FFF778FA5B1C10
:10481000142BF8DBBA48806BCA49884257D3002072
:10482000B7498863C8480078401CC749087002220D
:10483000C649042001F0FAFE642001F059F9C44889
:104840000078D02811D10020C24908804FF40061BF
:10485000BF48FBF780FC0120BF490870BFA0FFF7ED
:10486000BFFA0C20A549086031E00E20A34908607A
:10487000B8480088401CB7490880BB480078401CF5
:10488000B9490870B3480188B8A0FFF7A9FAB14840
:10489000008805281BDDBBA0FFF7A2FA0020AD4968
:1048A0000880BE4908700120914908800222BC4955
:1048B000042001F0BBFE0020A74908704FF40061FE
:1048C000A348FBF748FC8021B648FBF744FC8C4822
:1048D000C06BB549884215D300208949C863B348E5
:1048E0000068401CB14908609B480078012809D144
:1048F00098480088012805DAADA0FFF771FA032077
:104900007E4908607E480068F8B100207C49086054
:10491000AA480078012805D10220A9490870A949B0
:10492000087012E0A8480078012807D0A74800784E
:10493000012803D0A6480078012803D10120A0490E
:10494000087002E000209E4908706D48C06AB0F50A
:104950007A6F5FD300206A49C8629E480078401C85
:104960009C4908709648007820B101281FD0022881
:104970004FD13AE09848007860B94FF480419748A9
:10498000FDF7D5FA08219648FDF7CFFA01209249A4
:1049900008700BE04FF480419048FDF7C8FA0821F9
:1049A0008F48FDF7C4FA00208B49087031E08A482F
:1049B000007801280CD108218948FDF7B8FA4FF496
:1049C00080418648FDF7B1FA0020834908700BE06A
:1049D00008218348FDF7ABFA4FF480417F48FDF78B
:1049E000A6FA01207C49087013E04FF480417B480F
:1049F000FDF79DFA08217A48FDF797FA4FF4004138
:104A00007648FDF794FA4FF480517648FDF78DFA19
:104A100000BF00BF3A48406A44F62061884240D354
:104A20000020374948627048FCF760FE6E494878BC
:104A3000FBF768FC6D4908606B490878FBF762FC7E
:104A40006B4908606B4969480068FBF7D7FC05D3E0
:104A5000684967480068FBF7D1FC06D266A0FFF7FB
:104A6000BFF901205849087002E00020564908703B
:104A700068480088684908800846008830B967A0FF
:104A8000FFF7AEF90120514908700AE0624800883A
:104A9000322803DD01204D49087002E000204B4917
:104AA000087017488069B0F5FA6F1CD300201449CC
:104AB00088614448007820B1012815D0022814D11B
:104AC000E7E05C48007868B94FF400414348FDF7DF
:104AD0002EFA4FF480514348FDF727FA012055493B
:104AE0000870B6E0A8E0F2E0B4E0EFE000010020DA
:104AF0008A000020110100200901002098020020F6
:104B0000FC020020A80000203400002000380140F2
:104B1000280000203C050020A0000020A20000206A
:104B2000A4000020A6000020004800402000002033
:104B30000C040020A1000020A3000020A5000020FC
:104B4000A7000020A086010050000020A002002045
:104B5000180C00208C0000204C000020CAD5B5BDE8
:104B6000D0C4CCF80D0A00008E000020CEB4CAD507
:104B7000B5BDD0C4CCF8B4CECAFDA3BA2025640D0F
:104B80000A000000D0C4CCF8B3ACCAB1A3ACD6D8EC
:104B9000D0C2C1ACBDD3A3A10D0A000063000020A8
:104BA00051000020480B0020E0930400B4000020D6
:104BB000B7A2B2BCCFFBCFA20D0A00008700002035
:104BC0009000002091000020850000208600002039
:104BD000880000208F00002092000020001001407B
:104BE000000C0140000801406100002098000020F6
:104BF0009C0000200000484254686520444854311D
:104C0000312069732064656D6167656420210D0A38
:104C1000000000003000002066000020546865207D
:104C20006E6F6973650969732062616420210D0AE2
:104C300000000000930000204FF40041FE48FDF703
:104C400076F94FF48051FD48FDF771F90020FC49D9
:104C500008703BE0FA48007801280CD10103F748BE
:104C6000FDF765F94FF40041F348FDF75EF90020C8
:104C7000F34908700CE04FF48051F048FDF757F904
:104C80004FF40041EC48FDF752F90120EC4908705F
:104C90001CE04FF48041E848FDF749F90821E94854
:104CA000FDF743F94FF40041E348FDF740F94FF4B5
:104CB0008051E248FDF739F900214FF08040FEF7BE
:104CC00026FB00210120FEF773F800BF00BFDE487D
:104CD000C06941F28831884238D30020DA49C8617E
:104CE000DA48FCF711F8D9480068D9490860D74874
:104CF0004068D8490860D5488068D74908600021D5
:104D0000D3480068FBF770FB0BD00021D148006846
:104D1000FBF76AFB05D00021CF480068FBF764FB76
:104D20000FD1CE480078401CCC4908700846007866
:104D300005280BDD0120CA490870CAA0FFF750F80A
:104D400004E00020C5490870C5490870CD480078C6
:104D50000A2801DDFEF712FACB48007801287DD140
:104D60000020C9490870C9484068012877D1C74860
:104D7000C06801281FD1C64908702420C5490870A1
:104D80000120487006208870002000F007FCC1490F
:104D9000C870022000F002FCBE490871042000F037
:104DA000FDFBBC494871062000F0F8FBB949887149
:104DB0000020C8710872B548C068022820D10120BF
:104DC000B34908702420B3490870022048700620B7
:104DD0008870102000F0E2FBAE49C870122000F08D
:104DE000DDFBAC490871142000F0D8FBA9494871DB
:104DF000162000F0D3FBA74988710020C871087203
:104E0000A248C068032827D10120A14908702420A6
:104E1000A04908700320487006208870202000F008
:104E2000BDFB9C49C870222000F0B8FB994908716D
:104E3000242000F0B3FB97494871262000F0AEFB18
:104E400094498871282000F0A9FB9249C8712A2052
:104E500000F0A4FB8F4908728C4801E073E3D5E1B0
:104E6000C068042820D1012089490870242089497C
:104E700008700420487006208870302000F08EFBF7
:104E80008449C870322000F089FB824908713420BF
:104E900000F084FB7F494871362000F07FFB7D499C
:104EA00088710020C87108727848C068052820D130
:104EB0000120774908702420764908700520487041
:104EC00006208870402000F069FB7249C8704220BB
:104ED00000F064FB6F490871442000F05FFB6D49EE
:104EE0004871462000F05AFB6A4988710020C87159
:104EF00008726648C06806281FD1012064490870FE
:104F0000242064490870062048708870502000F002
:104F100045FB6049C870522000F040FB5D490871B4
:104F2000542000F03BFB5B494871562000F036FBF3
:104F3000584988710020C87108725448C068072811
:104F400018D10120524908702420524908700720C6
:104F5000487006208870602000F020FB4D49C87022
:104F6000622000F01BFB4B490871002048718871DA
:104F7000C87108724548C068082847D13348FBF714
:104F8000C3FE324800683249086030484068314901
:104F900008602E488068304908603F48FCF7A6FB4F
:104FA0003D494878FBF7AEF93C4908603A49087832
:104FB000FBF7A8F93A490860012035490870242018
:104FC000344908700820487006208870334800680B
:104FD000FBF7AEF92F49C87031480068FBF7A8F914
:104FE0002C4908711A480068FBF7BBF92949487138
:104FF00018480068FBF7B5F926498871164800681B
:10500000FBF7AFF92349C871002008721F48C06838
:1050100009284BD101201E49087024201D49087021
:1050200009204870062088700020C87008714871F7
:105030008871C871087235E0001001400008014015
:1050400093000020000C0140FC02002078060020A4
:10505000780000207C0000208000002084000020D8
:105060008800002020416363656C65726174696F1C
:105070006E2069732064656D616765642021200D71
:105080000A0000008E00002015000020BC02002055
:105090006400002094060020610000209800002099
:1050A0009C0000204FF4036100F022FFFE48C0681E
:1050B000102829D14FF47A7000F01AFD4FF47A705D
:1050C00000F016FD4FF47A7000F012FD4FF47A7084
:1050D00000F00EFD4FF47A7000F00AFD4FF47A7084
:1050E00000F006FD4FF47A7000F002FD4FF47A7084
:1050F00000F0FEFC4FF47A7000F0FAFC4FF47A7086
:1051000000F0F6FCFEF73AF8E748C06812287DD1B7
:105110002420E64908701220487020208870002062
:1051200000F03CFAE149C870022000F037FADF498C
:105130000871042000F032FADC494871062000F0C2
:105140002DFADA498871102000F028FAD749C87181
:10515000122000F023FAD5490872142000F01EFA3C
:10516000D2494872162000F019FAD04988722020DE
:1051700000F014FACD49C872222000F00FFACB4992
:105180000873242000F00AFAC8494873262000F06A
:1051900005FAC6498873282000F000FAC349C8738D
:1051A0002A2000F0FBF9C1490874302000F0F6F91C
:1051B000BE494874322000F0F1F9BC4988743420AB
:1051C00000F0ECF9B949C874362000F0E7F9B749A6
:1051D0000875402000F0E2F9B4494875422000F01B
:1051E000DDF9B2498875442000F0D8F9AF49C87597
:1051F000462000F0D3F9AD490876502000F0CEF9F2
:10520000AA494876522000F0C9F900E073E0A749A6
:105210008876542000F0C2F9A449C876562000F0E0
:10522000BDF9A2490877602000F0B8F99F49487796
:10523000622000F0B3F99D4988779D48FBF764FD33
:105240009B4800689B490860994840689A490860F3
:1052500097488068994908609948FCF747FA984947
:105260004878FBF74FF89749086095490878FBF7AD
:1052700049F89549086093480068FBF759F88B494D
:10528000C87791480068FBF753F8884981F82000F7
:1052900088480068FBF765F8844981F82100864852
:1052A0000068FBF75EF8814981F8220083480068B6
:1052B000FBF757F87D4981F82300002083490870E7
:1052C00000BF07E07949095C804A127811447F4A9F
:1052D0001170401C2428F5DB7C480078734981F864
:1052E0002400002405E07148015D7948FEF703FDC4
:1052F000641C252CF7DB6C48406802287ED16A4884
:10530000C06801281ED17349087067480069C1B29E
:10531000002000F099F964484069C1B2022000F011
:1053200093F961488069C1B2042000F08DF95E48AC
:10533000C069C1B2062000F087F901214FF48370E3
:1053400000F082F95848C06802281ED10120614946
:10535000087055480069C1B2102000F075F9524834
:105360004069C1B2122000F06FF94F488069C1B2A4
:10537000142000F069F94C48C069C1B2162000F051
:1053800063F90121080200F05FF94748C06803286B
:105390001DD101204F49087043480069C1B2202047
:1053A00000F052F940484069C1B2222000F04CF9A7
:1053B0003D488069C1B2242000F046F93A48C069EE
:1053C000C1B2262000F040F9012043490870364858
:1053D000C06804281CD101203E4908703248006989
:1053E000C1B2282000F030F92F484069C1B22A200C
:1053F00000F02AF938480078012800E026E007D1BB
:1054000000203549087001214FF4817000F01CF92B
:105410002548C068082819D101202E490870224863
:105420000069C1B2602000F00FF91F484069C1B2A5
:10543000622000F009F91C4840691B49096940EAEB
:105440000120264908800120254908702548007858
:10545000012821D10020234908701C49087000BF91
:1054600007E01249095C194A12781144174A117071
:10547000401C0928F5DB154800780C4948720024C7
:1054800008E00A48015D1248FEF735FC642000F090
:105490004DFB641C0A2CF4DB0E480078012852D125
:1054A00000200A4908701FE0BC020020940600207A
:1054B00078060020780000207C000020800000207A
:1054C00061000020980000209C0000209400002033
:1054D000004400406500002071000020F60000201C
:1054E0007500002064000020174908702420174927
:1054F00008701748806810304870062088700020B7
:10550000C870087148718871C871087200BF07E0DF
:105510000E49095C0F4A127811440E4A1170401C62
:105520000928F5DB0B48007808494872002408E098
:105530000648015D0848FEF7DEFB642000F0F6FA3D
:10554000641C0A2CF4DB10BD6500002094060020CA
:10555000BC020020940000200044004008B54FF435
:105560008070ADF8000003208DF8020014208DF843
:10557000030069460848FCF7FBFB4FF40070ADF8E8
:10558000000003208DF8020014208DF80300694606
:105590000148FCF7EDFB08BD000C014070B5044666
:1055A000E6B272B600F01EF8FE2101EAE41141F005
:1055B000A00002F0ADFA00F0E3F9304602F0A8FADC
:1055C00000F0DEF900F00EF8A12002F0A1FA00F0E0
:1055D000D7F900F06FFE054600F020F862B62846C5
:1055E00070BD000010B54FF480710B48FCF79FFCB4
:1055F0004FF400710848FCF79AFC012000F096FA7D
:105600004FF480710448FCF790FC4FF4007102489D
:10561000FCF78BFC10BD0000000C014010B54FF4EE
:1056200080710848FCF781FC4FF400710548FCF7D5
:105630007EFC012000F07AFA4FF480710148FCF7FB
:1056400076FC10BD000C014070B504460D4672B6E4
:10565000FFF7C8FFFE2101EAE41141F0A00002F0CB
:1056600057FA00F08DF92046E11704EB1161091299
:10567000A4EB0121CEB2304602F04AFA00F080F9E4
:10568000284602F045FA00F07BF9FFF7C7FF62B643
:10569000052000F02DFA70BD10B50024002000F0A8
:1056A0009BF8044634B1022C05D0032C07D0042CFF
:1056B0001DD10FE01CE00FA0FEF792FB18E00120C7
:1056C0001149087001F050FE00F04EFA0FA0FEF7ED
:1056D00087FB0DE015A0FEF783FB00201949087039
:1056E00019A0FEF77DFB00200749087000E000BF0D
:1056F00000BF10BD204950B5D8D6B7BBF1C8A1B383
:10570000ACCAB1200D0A00000001002020D2D1B4A3
:10571000D344484350B7FECEF1C6F7B3C9B9A6BBD0
:10572000F1B5C34950B5D8D6B70D0A0020B4D3445B
:10573000484350BBF1C8A14950B5D8D6B7CAA7B0A5
:10574000DC0D0A004001002020D6D8CAD4D6D00DE6
:105750000A00000010B51B480078032826DA1A4812
:1057600000681A49096888422AD900201649086049
:1057700008460068401D1549086012480078401C22
:105780001049087012480078012804D0022805D07A
:10579000042809D105E000F0CBFF06E001F080FA13
:1057A00003E001F07DFA00E000BF09E000F028FF0F
:1057B00001200849087000F0BBFF0120044908706F
:1057C00010BD000041010020480100204C010020D4
:1057D000400100204201002070B505460024284603
:1057E00000F02BFC48B1284600F0FDFB061E0DDD45
:1057F000304600F0A7FC044608E0002344220221C2
:10580000184601F0BFFF08B9012070BD4448007878
:10581000052875D2DFE800F003111E39570000207B
:105820004049087000F0ECFE00F082FF00203E4985
:10583000087001203A49087066E0022C07D100F098
:10584000DFFE01F02DFA02203549087001E0FFF774
:1058500081FF59E0052C0DD100F0D2FE00F070F868
:1058600018B103202E490870CFE701202C49087099
:105870000420CAE7062C05D100F0C2FE0120284909
:10588000087001E0FFF766FF3EE028480068401C12
:10589000C0B12748006825490968B0EB510F11D9FC
:1058A00000242448244909680968016023480068E5
:1058B000401C2249086001F0F3F9042018490870DF
:1058C00000F09EFE20E0052C0ED104221A4801684B
:1058D0001848FAF76EFC08B1032096E700F090FE36
:1058E00003200F4908700AE0062C06D100F088FE5C
:1058F00001200B49087002E002E0FFF72BFF03E0F4
:1059000000200749087000BF00BF06480078012842
:1059100004D1002002490870022076E7002074E7D5
:1059200040010020420100205401002044010020D9
:10593000480100203C0100203001002058010020D7
:1059400008B541F2883000900748112207A103688A
:10595000002001F0D3FB20B1012001F053F800201A
:1059600008BD0120FCE7000030010020434845430A
:105970004B5F49505F434F4E464C49435400000033
:1059800010B500244FF400710D48FCF7D0FA012047
:1059900000F0CCF801E0601C84B24FF4807108483C
:1059A000FCF7BAFA012801D1FF2CF4DB4FF40071A7
:1059B0000348FCF7BAFA012000F0B8F810BD000067
:1059C000000C014010B504464FF4847101EB441003
:1059D0001021FCF710FB00BF4FF4847101EB441061
:1059E000FCF7EAFA0028F7D14FF4027101EB4410FA
:1059F000FF21FCF700FB10BD2DE9F04105460C46E8
:105A000016462078FF2808D16078FF2805D1A078B5
:105A1000FF2802D1E078FF2808D0207828B96078E4
:105A200018B9A07808B9E07800B10EB900275CE099
:105A30000127217840F6084202EB4510FCF7DBFA1B
:105A4000617840F6085202EB4510FCF7D4FAA178D1
:105A500040F6086202EB4510FCF7CDFAE17840F61B
:105A6000087202EB4510FCF7C6FA310A41F208024F
:105A700002EB4510FCF7BFFAF1B241F2081202EB5B
:105A80004510FCF7B8FA4FF4847101EB451004217E
:105A9000FCF7B1FA00BF4FF4847101EB4510FCF73D
:105AA0008BFA0028F7D117E04FF4427101EB451053
:105AB000FCF782FA172800D116E0284600F08AFA8F
:105AC00000F0080040B14FF4027101EB45100821CD
:105AD000FCF791FA002707E04FF4427101EB451003
