:020000040800F2
:10000000B81B002045010008F12D0008152000084C
:10001000ED2D000805170008B33F000800000000A0
:10002000000000000000000000000000DD310008BA
:100030009919000800000000792E0008F932000824
:100040005F0100085F0100085F0100085F01000810
:100050005F0100085F0100089D190008D119000820
:100060005F0100085F0100085F0100085F010008F0
:100070005F0100085F0100085F0100085F010008E0
:100080005F0100085F0100085F0100085F010008D0
:100090005F0100085F0100085F0100085F010008C0
:1000A0005F0100085F0100085F0100085F010008B0
:1000B000F1330008A53400085F0100085F01000863
:1000C0005F0100085F0100085F0100085F01000890
:1000D0005F010008953800082D3A0008D13C00085F
:1000E0005F0100085F0100085F0100085F01000870
:1000F0005F0100085F0100085F0100085F01000860
:100100005F0100085F0100085F0100085F0100084F
:100110005F0100085F0100085F0100085F0100083F
:100120005F0100085F0100085F0100085F0100082F
:10013000DFF80CD000F0E8FB00480047D968000861
:10014000B81B00200648804706480047FEE7FEE748
:10015000FEE7FEE7FEE7FEE7FEE7FEE7FEE7FEE777
:10016000FD3200083101000840EA01039B0703D07B
:1001700009E008C9121F08C0042AFAD203E011F8E6
:10018000013B00F8013B521EF9D27047D2B201E0A8
:1001900000F8012B491EFBD270470022F6E710B58C
:1001A00013460A4604461946FFF7F0FF204610BDE5
:1001B00030B505462A460B4612F8010B13F8014BE1
:1001C00008B1A042F8D01CB1002802D06D1CF1E7A4
:1001D000284630BDCAB2401E10F8011F8A4202D024
:1001E0000029F9D100207047421C10F8011B00299A
:1001F000FBD1801A704730B504460020034600E06A
:100200005B1C934203D2E05CCD5C401BF8D030BD58
:1002100010B5044600E0401C0378002BFBD100E041
:10022000401C521E04D311F8013B0370002BF7D180
:1002300000210170204610BD034611F8012B00F883
:10024000012B002AF9D11846704770B5064603F015
:100250003DFF046805460A220021304600F041F9BE
:100260002C6070BD2DE9FE4F81EA030404F00044C8
:1002700021F0004100944FF0000B23F0004350EABE
:1002800001045ED052EA03045BD0C3F30A54C1F305
:100290000A552C44A4F2F3340194A0FB0254C1F398
:1002A000130141F48011C3F3130343F4801301FBE2
:1002B000024400FB034E840A970A44EA815447EA49
:1002C0008357A4FB076802958D0A05FB07854FEA53
:1002D000932C04FB0C542705029D4FEA065847EA6D
:1002E0001637B5EB08056EEB070C870E920E47EA42
:1002F000811742EA8312A7FB0201B6EB0B0164EB04
:1003000000042B0D43EA0C335E1844EB1C50DA4614
:100310005146E7FB0201C5F313044FEA0B3343EAEE
:1003200014534FEA0432019C43EA0603A4F10C047F
:100330000294009CCDE900B400F051F903B0BDE88F
:10034000F08F00200146F9E796230022114600F0C5
:1003500009B90EB5C10F80EAE0700844CA07002150
:1003600040F233438DE80E000A460B4600F037F9A1
:1003700003B000BD00F0004220F00040C10DC0F30A
:10038000160040F400007F2901DA0020704796290A
:1003900003DCC1F19601C84001E096398840002A8B
:1003A000F4D04042704720F00040C10DC0F3160069
:1003B00040F400007F2901DA00207047962903DC11
:1003C000C1F19601C840704796398840704700F0E7
:1003D000004230F000400AD0C10D01F56071C0F359
:1003E000160042EA0151C20840071143704700203D
:1003F0000146704701F0004330B421F0004150EA5B
:10040000010206D00A0DA2F56072C1F31301002AA1
:1004100002DC30BC00207047440F44EAC104C10034
:10042000E01830BC00EBC25000F093B8002801DBAC
:10043000C0F10040002901DBC1F100418142704759
:10044000002801DBC0F10040002901DBC1F10041BF
:100450008842704730B50B46014600202022012417
:1004600009E021FA02F59D4205D303FA02F5491B82
:1004700004FA02F52844151EA2F10102F1DC30BD98
:100480002DE9F05F0546002092469B4688460646C9
:10049000814640241BE0284641464746224600F05C
:1004A00054FA53465A46C01A914110D31146184681
:1004B000224600F03BFA2D1A67EB01084F46224610
:1004C0000120002100F032FA17EB00094E41201EF6
:1004D000A4F10104DFDC484631462A464346BDE824
:1004E000F09F2DE9F04791460F46804604460026CE
:1004F00014F8015B2DB100F04BFA0068405DC007B5
:10050000F6D12B2D02D02D2D18D0641E4A46394627
:10051000204600F041FA27B13968A14201D1C7F85D
:10052000008071054FF002040BD54042002803DD26
:1005300003F0CCFD0460A007BDE8F08746F48066B8
:10054000E4E70028F8DA03F0C1FD04606FF0004032
:10055000F2E70029A8BF7047401C490008BF20F0FF
:100560000100704710B4B0FA80FC00FA0CF050EAB9
:10057000010404BF10BC704749B1CCF1200421FA3A
:1005800004F411FA0CF118BF012121430843A3EB35
:100590000C01CB1D4FEA00614FEA102042BF002042
:1005A00010BC704700EBC35010440029A4BF10BC1E
:1005B0007047401C490008BF20F0010010BC704784
:1005C00010B5141E73F1000408DA401C41F100015B
:1005D00092185B411A4301D120F0010010BD2DE9B2
:1005E000F04D92469B4611B1B1FA81F202E0B0FAA9
:1005F00080F22032904600F099F904460F4640EA16
:100600000A0041EA0B0153465A46084313D01146EB
:1006100053EA010019D0C8F14002504600F095F9A4
:1006200005460E4650465946424600F07FF90843BB
:1006300005D0012004E020463946BDE8F08D0020B9
:10064000054346EAE0762C4337430A986305E40AFB
:10065000A0EB08000022FD0A44EA47540A3002D504
:1006600000200146E9E7010510196941DDE9084567
:1006700000196941BDE8F04DA2E72DE9FE4F804623
:1006800081EA0300C00F0C46009021F0004123F0E6
:100690000045B8EB0200A94105D2404621469046EC
:1006A0001C460B46024623F00040104347D0270D5E
:1006B000C7F30A00C3F30A510290401A0190402880
:1006C0006BDAC3F3130040F4801B0098924620B10C
:1006D0000023D2EB030A63EB0B0B01985946C0F1E0
:1006E0004002504600F022F906460D465046594653
:1006F000019A00F03AF910EB08006141002487EA02
:10070000115284EAE7731A4340D0009A62B3019A07
:10071000012A4FEA075215DC001B61EB02014FF082
:10072000004202EA0752CDE90042001C41F5801167
:1007300032462B46FFF753FF03B0BDE8F08F40462B
:100740002146F9E7001B61EB0201001C41F5801313
:1007500000185B412018A2F5001747EB030140EA9F
:10076000D570B6196D4111E06D084FEA360645EABD
:10077000C0754FEA0752001B61EB0201001C41F5F6
:10078000801149084FEA30000019514132462B468A
:1007900003B0BDE8F04FFFF713BF009801224000FF
:1007A0000023D0EB020263EBE073009821464FEA8E
:1007B000E074B8EB000061EB0401E9E783F000436B
:1007C0005BE781F0004158E72DE9F04D81EA030431
:1007D00004F0004B21F0004514464FF0000A23F0CE
:1007E000004150EA050220D054EA01021DD0C5F3B1
:1007F0000A570246C5F31303C1F31300C1F30A56A7
:1008000040F4801543F48013A7EB0608101BD6466E
:1008100008F2FD3873EB050002D308F1010801E08E
:1008200092185B41B8F1000F03DA00200146BDE8E1
:10083000F08D00204FF48011064684460EE0171B11
:1008400073EB050705D3121B63EB050306434CEA64
:10085000010C49084FEA300092185B4150EA010749
:10086000EDD152EA030012D082EA040083EA0501C6
:10087000084305D0101BAB4106D20122002306E03D
:1008800000224FF0004302E06FF0010253101AEB18
:1008900006004CEB085110EB0A0041EB0B01BDE8E0
:1008A000F04DFFF78DBEC1F30A52C1F3130140F2C0
:1008B000FF3341F480119A4202DA0020014670476A
:1008C00040F233439A42A2F2334202DC524200F039
:1008D0003CB800F02BB8000030B5041E71F10004E4
:1008E00004DB4FF00044404264EB0101141E73F13D
:1008F000000405DB1C464FF00043524263EB040347
:10090000994208BF904230BD064C074D06E0E068B2
:1009100040F0010394E8070098471034AC42F6D346
:10092000FFF70AFC0C8600082C860008202A04DB4E
:10093000203A00FA02F1002070479140C2F12003F2
:1009400020FA03F3194390407047202A04DB203A31
:1009500021FA02F00021704721FA02F3D040C2F1DF
:1009600020029140084319467047202A06DBCB1726
:10097000203A41FA02F043EAE07306E041FA02F35A
:10098000D040C2F120029140084319467047000050
:1009900000487047E08400082DE9F05F8246007847
:1009A000002715468B460AF10104B946302801D0CC
:1009B0009DB113E014F8010B0127782803D05828C3
:1009C00001D045B10AE00DB1102D07D10027102547
:1009D00014F8010B02E0082500E00A250026B046C5
:1009E0000EE005FB080005FB06F1012701EB1046B0
:1009F0001FFA80F8B6F5803F00D3B94614F8010B12
:100A0000294600F018F80028EBDABBF1000F05D0FA
:100A10000FB1641E00E05446CBF80040B9F1000F5E
:100A200006D003F053FB02210160C81EBDE8F09F11
:100A300048EA0640FAE73A2800D2303820F020028F
:100A4000412A01D3A2F13700884201D34FF0FF3091
:100A5000704770B58C1810F8015B15F0070301D1D1
:100A600010F8013B2A1106D110F8012B03E010F811
:100A7000016B01F8016B5B1EF9D12B0705D4002334
:100A8000521E0DD401F8013BFAE710F8013BCB1AD6
:100A9000921C03E013F8015B01F8015B521EF9D5CB
:100AA000A142D8D3002070BD08B50121084602F04C
:100AB00019FA01214FF4027002F044FA0120ADF856
:100AC000000000208DF803006946024801F08AF911
:100AD00008BD0000000C014010B5FFF7E5FF00F075
:100AE00001F810BD00B591B0334800F091FE3348D5
:100AF00006903348079000200890012009900020BC
:100B00000A9080200B9040000C9080000D902020D7
:100B10000E9000020F900020109006A9264800F0C9
:100B20001DFF0121244800F067FE002001908DF890
:100B3000080001208DF809004FF460200390002088
:100B4000049001208DF8140001A91C484C3800F0D5
:100B500063F84FF4404002F0B9F903230122082161
:100B600016484C3800F080F8012114484C3800F049
:100B700034F8012111484C3800F024F80F484C3863
:100B800000F0CEF800BF0D484C3800F03BF80028CC
:100B9000F9D10A484C3800F0D3F800BF07484C3868
:100BA00000F026F80028F9D1012104484C3800F063
:100BB000BCF811B000BD0000080002404C24014008
:100BC0003A00002021B1826842F00102826003E015
:100BD000826822F001028260704721B1826842F48B
:100BE0008072826003E0826822F4807282607047C3
:100BF000014600208A6802F004020AB1012000E0E8
:100C000000207047014600208A6802F008020AB1FD
:100C1000012000E00020704730B50246002000238C
:100C200050680F4C20400D790C6844EA052420439D
:100C3000506090680B4C2040D1E902542C434D7910
:100C400044EA450420439060D06A20F470000C7C94
:100C5000641EE4B2234340EA0350D06230BD00007A
:100C6000FFFEF0FFFDF7F1FFF0B504460D46002052
:100C70000021092D11DDE068A5F10A0606EB460703
:100C8000072606FA07F18843A5F10A0606EB460691
:100C900003FA06F10843E0600CE0206905EB450724
:100CA000072606FA07F1884305EB450603FA06F125
:100CB00008432061072A0FDA606B561E06EB860791
:100CC0001F2606FA07F18843561E06EB860605FA2C
:100CD00006F10843606322E00D2A0FDA206BD61F6D
:100CE00006EB86071F2606FA07F18843D61F06EB98
:100CF000860605FA06F10843206310E0E06AA2F1D7
:100D00000D0606EB86071F2606FA07F18843A2F1B7
:100D10000D0606EB860605FA06F10843E062F0BD13
:100D2000816841F008018160704721B1826842F416
:100D3000A002826003E0826822F4A0028260704711
:100D4000816841F004018160704700002DE9FC4793
:100D50008146322000F0C4F88DF80000332000F006
:100D6000BFF88DF80100012005F0A0FA342000F052
:100D7000B7F88DF80200352000F0B2F88DF80300C6
:100D8000012005F093FA362000F0AAF88DF804004F
:100D9000372000F0A5F88DF80500012005F086FA4F
:100DA0009DF800009DF8011000EB012004B2002C1A
:100DB00001DA604204B22046FFF7CBFA07464FF053
:100DC00033321E4BFFF74EFA0546FFF713FBC9F807
:100DD00000009DF802009DF8031000EB012004B212
:100DE000002C01DA604204B22046FFF7B2FA054651
:100DF0004FF03332114BFFF735FA0746FFF7FAFA97
:100E0000C9F804009DF804009DF8051000EB0120CE
:100E100004B2002C01DA604204B22046FFF799FACE
:100E200005464FF03332054BFFF71CFA0746FFF734
:100E3000E1FAC9F80800BDE8FC87000033330F4031
:100E400010B502F071F900211E2000F073F80021A6
:100E50001F2000F06FF80021202000F06BF8002127
:100E6000212000F067F80021222000F063F8002123
:100E7000232000F05FF80121242000F05BF801211D
:100E8000252000F057F82B21262000F053F80021F0
:100E9000272000F04FF80921282000F04BF8FF210F
:100EA000292000F047F880212A2000F043F80F2184
:100EB0002C2000F03FF808212D2000F03BF8802185
:100EC0002E2000F037F800212F2000F033F80B21FE
:100ED000312000F02FF80021382000F02BF810BD51
:100EE00010B504461021114801F059F844F0800073
:100EF000002242EA00210E4802F0F6F800BF02216B
:100F00000B4802F0E5F80028F9D000BF012108489D
:100F100002F0DEF80028F9D01021044801F041F871
:100F2000034802F0DEF8C0B210BD0000001001401E
:100F30000030014070B504460D4610210E4801F006
:100F40002EF845EA04210D4802F0CEF800BF022138
:100F50000A4802F0BDF80028F9D000BF0121074877
:100F600002F0B6F80028F9D01021034801F019F872
:100F7000024802F0B6F870BD001001400030014098
:100F800030B587B03C483DA102683D4803F08AF87F
:100F90003B4B3CA23EA140A003F074F84B4800211B
:100FA00002910391CDE9041000913C23344A019150
:100FB00034A137A001F09AF9002858D1434880881D
:100FC00082B242480168042005F09EFF4FF4FA60A7
:100FD00005F06CF90CE0042005F015FC04462246EF
:100FE0003B49042005F00EFE012005F05FF903E007
:100FF000374800782028EED100BF354800782028F7
:1010000002D1012033490870314D002D2BD02846E4
:1010100001F058FE022826D1284601F03CFD0628A2
:101020001CD2DFE800F003070B0F13172AA003F010
:1010300029F817E02DA003F025F813E032A003F003
:1010400021F80FE039A003F01DF80BE03FA003F0FA
:1010500019F807E046A003F015F803E04FA003F0ED
:1010600011F800BF00BF194801F0A8F802E052A033
:1010700003F008F807B030BD5400002025640000DC
:10108000840B002070617373776F7264000000003E
:1010900061646D696E000000B0D9B6C8CCECB9A42B
:1010A0005F4465764C696E6B0D0A50524F49443A65
:1010B0002025732C09415549463A2025732C0944B3
:1010C000455649443A25730D0A000000780C00206B
:1010D000B60B002058000020546970733A09C1AC67
:1010E000BDD3B3C9B9A60D0A000000005741524E46
:1010F0003A09C1ACBDD3CAA7B0DCA3BAD0ADD2E91E
:10110000B4EDCEF30D0A00005741524E3A09C1AC7E
:10111000BDD3CAA7B0DCA3BAB7C7B7A8B5C4636CC0
:1011200069656E7469640D0A000000005741524EF3
:101130003A09C1ACBDD3CAA7B0DCA3BAB7FECEF1A1
:10114000C6F7CAA7B0DC0D0A000000005741524E96
:101150003A09C1ACBDD3CAA7B0DCA3BAD3C3BBA7FD
:10116000C3FBBBF2C3DCC2EBB4EDCEF30D0A00004F
:101170005741524E3A09C1ACBDD3CAA7B0DCA3BA9D
:10118000B7C7B7A8C1B4BDD328B1C8C8E7746F6BDF
:10119000656EB7C7B7A8290D0A0000004552523A3C
:1011A00009C1ACBDD3CAA7B0DCA3BACEB4D6AAB429
:1011B000EDCEF30D0A0000005741524E3A094D5151
:1011C00054545F5061636B6574436F6E6E656374F6
:1011D000204661696C65640D0A0000007FB5044615
:1011E0000D4616460F480121002200923346CDE9F4
:1011F000012103902A4621460A2001F0C5F980B951
:101200000848808882B207480168042005F07CFE07
:1012100005A002F037FF034800F0D0FF642005F07E
:1012200045F87FBDC0060020B7A2CBCDB3C9B9A693
:101230000D0A00002DE9F0438BB00746002007900F
:10124000089009900A9006900590002604900025C9
:1012500000248046384601F035FD0646F01E0D2874
:1012600070D2DFE800F026707891ACCCB4CCC0CC62
:10127000CCCC070006AA05A9384601F0C7FB0546F5
:10128000B5B977A0DDE9051202F0FCFE07AADDE999
:10129000050100F0E5FF58B977A002F0F3FE0898C9
:1012A00082B20420079905F02FFE07A800F086FF00
:1012B000A8E0774804AB06AA05A90090384601F0DB
:1012C000F9FB0546002D3CD172A0DDE9051202F0C4
:1012D000D9FE0698FEF788FF81464A46744806996B
:1012E000FEF742FF9DF81000012802D0022826D107
:1012F00012E007A96648008801F0E1F958B96DA02D
:1013000002F0C0FE089882B20420079905F0FCFDA7
:1013100007A800F053FF13E007A95D48008801F01B
:1013200016FA58B969A002F0ADFE089882B20420FE
:10133000079905F0E9FD07A800F040FF00E000BFB5
:1013400000BF5FE05BE0384601F07CFC10B965A0AF
:1013500002F098FE56E0384601F092FC98B969A078
:1013600002F090FE07A90A2001F015FA58B96BA007
:1013700002F088FE089882B20420079905F0C4FDA7
:1013800007A800F01BFF3DE041480188384601F006
:1013900086FC98B967A002F075FE07A90A2001F043
:1013A000B2F958B969A002F06DFE089882B2042023
:1013B000079905F0A9FD07A800F000FF22E03846D4
:1013C00001F04FFC10B968A002F05CFE1AE038464C
:1013D00001F0B2FC18B96AA002F054FE02E06FA05E
:1013E00002F050FE0EE0384601F0C0FC18B972A0C1
:1013F00002F048FE02E077A002F044FE02E04FF067
:10140000FF3500BF00BF681C10B90BB0BDE8F0830A
:101410007D210698FEF7DEFE0446A4B1681C90B15B
:10142000641C06E014F8012B404608F1010801A9EC
:101430000A542078302802DB20783928F2DD01A810
:10144000FEF703FF80460F2E01D0032E05D105982D
:1014500005F080F9069805F07DF900BFD5E700009A
:10146000636D6469643A2025732C207265713A209B
:1014700025730D0A00000000546970733A09536522
:101480006E6420436D64526573700D0A00000000A5
:10149000B8020020746F7069633A2025730D0A70DA
:1014A00061796C6F61643A2025730D0A00000000B9
:1014B000360C0020546970733A0953656E642050ED
:1014C00075626C69736841636B0D0A0054697073CF
:1014D0003A0953656E64205075626C697368526591
:1014E000630D0A00546970733A094D5154542050E9
:1014F00075626C6973682053656E64204F4B0D0AEA
:1015000000000000546970733A09526576205075E6
:10151000626C6973685265630D0A000054697073E8
:101520003A0953656E64205075626C697368526540
:101530006C0D0A00546970733A0952657620507533
:10154000626C69736852656C0D0A000054697073AF
:101550003A0953656E64205075626C697368436F15
:101560006D700D0A00000000546970733A095265ED
:1015700076205075626C697368436F6D700D0A0058
:10158000546970733A094D51545420537562736312
:1015900072696265204F4B0D0A0000005469707338
:1015A0003A094D51545420537562736372696265F0
:1015B000204572720D0A0000546970733A094D514A
:1015C000545420556E537562736372696265204F7F
:1015D0004B0D0A00546970733A094D51545420550B
:1015E0006E537562736372696265204572720D0A8B
:1015F00000000000F0B585B004460D46002600202E
:10160000019002900390049006E054F8261021A067
:1016100002F038FD701CC6B2AE42F6DB01A82B46C4
:10162000224600210090142001F0D9F840B9029818
:1016300082B20420019905F067FC01A800F0BEFD0C
:10164000642004F033FE042005F0DDF807463A4636
:101650001649042005F0D6FA1448007930B1012863
:1016600008D002280AD0802810D10BE010A002F088
:1016700009FD0BE014A002F005FD07E018A002F040
:1016800001FD03E01CA002F0FDFC00BF00BF05B09F
:10169000F0BD000053756273637269626520546F18
:1016A0007069633A2025730D0A000000B60B002014
:1016B000B6A9D4C4C8B7C8CFA3AC20516F53B5C81E
:1016C000BCB6300D0A000000B6A9D4C4C8B7C8CF54
:1016D000A3AC20516F53B5C8BCB6310D0A00000051
:1016E000B6A9D4C4C8B7C8CFA3AC20516F53B5C8EE
:1016F000BCB632200D0A0000B6A9D4C4CAA7B0DC1B
:10170000200D0A0000BFFEE72DE9F04104464FF42A
:101710000071224800F043FC142004F0C7FD4FF490
:1017200000711E4800F03DFC282004F0DDFD4FF460
:1017300000711A4800F02AFC68BB00BF4FF400712A
:10174000164800F023FC0028F8D000BF4FF40071C9
:10175000124800F01BFC0028F8D100F021F820709E
:1017600000F01EF8064600F01BF8607000F018F854
:10177000074600F015F805464FF40071074800F0E1
:1017800010FC20786178084430443844A84202D1E3
:101790000120BDE8F0810020FBE7000000100140BF
:1017A00070B50024002521E000BF4FF400711148FE
:1017B00000F0ECFB0028F8D0212004F095FD4FF458
:1017C00000710C4800F0E2FB60B1012000EB440026
:1017D000C4B200BF4FF40071064800F0D7FB0028E8
:1017E000F8D101E06006040E681CC5B2082DDBDBF1
:1017F000204670BD0010014021B1026842F0010294
:10180000026004E002684FF6FE731A4002607047FF
:1018100001684FF6FE7211400160002101604160D5
:101820008160C1604B49884208D14A4908394968FA
:1018300041F00F01474A083A51608AE045491431A6
:10184000884208D143490839496841F0F001414ACA
:10185000083A51607DE03F492831884208D13D492E
:101860000839496841F470613A4A083A516070E0B9
:1018700038493C31884208D136490839496841F431
:101880007041344A083A516063E03249503188422D
:1018900008D130490839496841F470212D4A083A85
:1018A000516056E02B496431884208D129490839F2
:1018B000496841F47001274A083A516049E02549D6
:1018C0007831884208D123490839496841F070616C
:1018D000204A083A51603CE01F49884206D1011F66
:1018E000096841F00F01021F116032E01A491431FA
:1018F000884208D11849091F096841F0F001164AC9
:10190000121F116025E014492831884208D112497C
:10191000091F096841F470610F4A121F116018E035
:101920000D493C31884208D10B49091F096841F42F
:101930007041094A121F11600BE00749503188427B
:1019400007D10549091F096841F47021024A121F95
:1019500011607047080002400804024010B50022E0
:10196000026847F6F0739A430C6A8B6823430C694C
:1019700023434C6923438C692343CC6923434C6A3A
:1019800023438C6A23431A430260CB6843600B688D
:1019900083604B68C36010BD7047000010B5012024
:1019A00000F03CF860B1012000F02CF80548006818
:1019B00000F00100044908600846007803490870F7
:1019C00010BD00000808014010000020DD000020CC
:1019D00010B5022000F022F860B1022000F012F8E9
:1019E0000548006800F002000449086008460078D5
:1019F0000349087010BD0000080801400C000020D9
:101A0000DC00002001490860704700001404014018
:101A100010B500F061F800F097F810BD0146002005
:101A20000022074B1B6803EA0102054B14331B68B5
:101A30000B4013B10AB1012000E000207047000004
:101A400000040140002123498279002A3AD00A4645
:101A5000126803689A430B461A600A1D12680368ED
:101A60009A430B1D1A60027911440A6803681A43ED
:101A70000A60184A0832126803689A43154B083303
:101A80001A601A1D126803689A43124B0C331A60CD
:101A90004279102A0ED11A1F126803681A430D4B9F
:101AA00008331A601A1D126803681A43094B0C3375
:101AB0001A600DE00749427911440A6803681A4325
:101AC0000A6005E0027911440A6803689A430A60D3
:101AD00070470000000401401FB50121052001F0FE
:101AE00031FA4FF4E06001F0BDF906208DF80C00EA
:101AF00000208DF80D0006208DF80E0001208DF8D5
:101B00000F0003A801F076F90120ADF808002820A5
:101B10008DF80B0002A90B4800F064F9002108467B
:101B200000F040F90120009000208DF80400102002
:101B30008DF8050001208DF806006846FFF782FF4A
:101B40001FBD0000000801401FB50121052001F064
:101B5000F9F94FF4E06001F085F907208DF80C00E9
:101B600000208DF80D0007208DF80E0001208DF863
:101B70000F0003A801F03EF90220ADF8080028206C
:101B80008DF80B0002A90B4800F02CF90121002070
:101B900000F008F90220009000208DF804001020C9
:101BA0008DF8050001208DF806006846FFF74AFF12
:101BB0001FBD00000008014008B501213D2001F0D3
:101BC000C1F90121734800F099F94020ADF80000F7
:101BD00001208DF8020048208DF8030069466E4808
:101BE00000F000F98020ADF8000001208DF802001F
:101BF00010208DF803006946674800F0F3F84FF4B1
:101C00000070ADF8000003208DF8020014208DF85C
:101C100003006946604800F0E5F84FF400715E4843
:101C200000F0BFF94FF48070ADF8000001208DF88E
:101C3000020010208DF803006946584800F0D2F8E1
:101C40004FF48071554800F0ACF94FF40070ADF8D6
:101C5000000001208DF8020010208DF80300694675
:101C60004E4800F0BFF84FF400714C4800F099F96D
:101C70001020ADF8000001208DF8020010208DF832
:101C800003006946454800F0ADF81021434800F0D4
:101C900088F92020ADF8000001208DF80200102006
:101CA0008DF8030069463D4800F09CF820213B4830
:101CB00000F077F94FF40050ADF8000001208DF8E6
:101CC000020010208DF803006946334800F08AF8BE
:101CD0004FF40051304800F064F94FF48040ADF803
:101CE000000001208DF8020010208DF803006946E5
:101CF000294800F077F84FF48041274800F051F967
:101D00000420ADF8000001208DF8020010208DF8AD
:101D100003006946224800F065F80421204800F0DD
:101D200040F90820ADF8000001208DF802001020D5
:101D30008DF803006946194800F054F80821174847
:101D400000F02FF94FF40060ADF8000001208DF88D
:101D5000020010208DF8030069460F4800F042F899
:101D60004FF400610C4800F01CF94FF48050ADF8BE
:101D7000000001208DF8020010208DF80300694654
:101D8000054800F02FF84FF48051034800F009F99E
:101D900008BD00000002300000100140000C0140AE
:101DA0000014014030B500228B071C0F0F2303FAEB
:101DB00004F20B4B8C1053F824309343084C8D10D5
:101DC00044F8253023468C1053F824308C07240F18
:101DD00000FA04F42343024C8D1044F8253030BD42
:101DE000080001402DE9F0410246002500260020B0
:101DF00000230024002791F803C00CF00F0591F890
:101E000003C00CF0100CBCF1000F03D091F802C01D
:101E10004CEA050591F800C0BCF1000F31D0146800
:101E200000202BE04FF0010C0CFA00F3B1F800C0D9
:101E30000CEA03069E4220D183004FF00F0C0CFAEF
:101E400003F7BC4305FA03FC4CEA040491F803C011
:101E5000BCF1280F06D14FF0010C0CFA00FCC2F8BF
:101E600014C00AE091F803C0BCF1480F05D14FF04F
:101E7000010C0CFA00FCC2F810C0401C0828D1D399
:101E80001460B1F800C0BCF1FF0F34DD54680020CD
:101E90002EE000F1080C4FF0010808FA0CF3B1F83D
:101EA00000C00CEA03069E4221D183004FF00F0CC4
:101EB0000CFA03F7BC4305FA03FC4CEA040491F85E
:101EC00003C0BCF1280F05D100F1080C08FA0CF88A
:101ED000C2F8148091F803C0BCF1480F07D100F19B
:101EE000080C4FF0010808FA0CF8C2F81080401CEA
:101EF0000828CED35460BDE8F0810000F0B50A4652
:101F0000002300240021002500F00046B6F1004F18
:101F100002D11D4EF16901E01B4E7168C0F303450B
:101F200083B200F44016B6F5401F08D121F070616D
:101F3000154E766826F07066134F7E6012E000F44E
:101F40008016B6F5801F06D1032606FA05F4A143D4
:101F500041F0706106E0460D360103FA06F6B14322
:101F600041F0706122B1460D360103FA06F63143A5
:101F700000F00046B6F1004F02D1034EF16101E0DE
:101F8000014E7160F0BD00000000014002460020DB
:101F900093680B400BB1012000E0002070474161C5
:101FA0007047016170474FF6FF7101800221817017
:101FB0000421C1707047000010B50F4800680F4938
:101FC00008600D48001D006848600B480830006834
:101FD0008860084600684008496800EB910007499E
:101FE000896800EBD100064908600846016805A031
:101FF00002F048F810BD0000E8F7FF1FA806002017
:1020000054000020CEA8D2BB6964A3BA25640D0A8F
:102010000000000000BFFEE710B5002001F0CCFF7B
:1020200010BD10B5012001F0C7FF10BD70B504460A
:102030000025FFF7F1FFC4F3074000F010F8C4F3E8
:10204000072000F00CF804F0F80000F008F8002079
:1020500000F005F80546FFF7E4FF284670BD10B50F
:102060000446204601F00CF810BD70B504460D463C
:10207000FFF7D2FFC4F30740FFF7F1FFC4F30720D7
:10208000FFF7EDFF04F0F801091DC8B2FFF7E7FF05
:102090002846FFF7E4FFFFF7C4FF70BD4CF6CC40C5
:1020A00001490860704700000030004010B500F0A2
:1020B00013F810BD70B505460C4645F2555000F0BA
:1020C0001FF8284600F010F8204600F013F800F042
:1020D00003F8FFF7E3FF70BD4AF6AA200149086044
:1020E0007047000000300040014948607047000020
:1020F0000030004001498860704700000030004017
:1021000001490860704700000030004010B54FF4EE
:102110007A7004F0CBF840F6A6610420FFF7CAFFFE
:1021200001F03CF901F07EF901F092F901F0E4F9D7
:10213000FFF742FD01F052FF03F0FAFDFEF780FECB
:10214000FEF7CAFCFFF764FC01F028FC01F05CFB21
:1021500001F074FD01F00CFC01F028FE01F058FDC7
:1021600000F08CFEFFF728FF00F076FF06F08CF8F9
:1021700005F0BAFE05F0F0FC04F0E0FC0749084861
:1021800005F0E6FF07A001F07DFF0121084600F001
:10219000B9FE0121880701F0CAF910BD3D010020F8
:1021A00035010020573535303020496E69742043A1
:1021B0006F6D706C657465210D0A000010B50446E2
:1021C000207B012802D1206804F0C4FA002020609E
:1021D0006060A060207310BD0246002301230DE063
:1021E00002F07F000870D2092AB1087840F0800020
:1021F0000870491C01E0184670475B1C042BEFDD9A
:102200004FF0FF30F8E770B504460E460025206811
:1022100098B901202073304604F068FB20602068E4
:10222000E0B100206060A66003E00020216848550E
:102230006D1CA068A842F8D810E00220207303E0CB
:102240000020216848556D1CA068A842F8D80020DD
:102250006060A068B04201D20020206070BD000024
:102260002DE9FF5F07460D4690463846FDF7BCFF57
:1022700086B22846FDF7B8FF1FFA80FA4FF0000932
:10228000B01D04F033FB04461CB9012004B0BDE8C6
:10229000F09FB11D2046FDF780FF12A0016821606C
:1022A0008088A080324639462046FDF7B1FF284697
:1022B000FDF79AFF83460120002100915B462A46E4
:1022C000CDE90208019121460A2000F05DF910B91C
:1022D0004FF0000901E04FF00109204604F03AFAFE
:1022E0004846D3E724637273702F00002DE9FF4F37
:1022F00083B082468B469146159C002500200290B3
:102300000F2701904846FDF76FFF8046B9F1000F97
:1023100003D1012007B0BDE8F08F08F10200384476
:1023200087B2109808B145F00205129878B145F0CF
:1023300004051298FDF758FFC0B202901398FDF7FC
:1023400053FF01460298001D0844384487B2119893
:1023500020B1012804D0022808D104E000BF07E022
:1023600045F00C0504E045F0140501E00220D1E73A
:1023700000BF149808B145F02405BAF1000F02D04F
:10238000BBF1000F01D10320C4E745F0C005504662
:10239000FDF72AFF06465846FDF726FF3044001D8C
:1023A000384487B239462046FFF72DFF206808B928
:1023B0000420AFE739462068FDF7EFFE1021626880
:1023C000501C606020688154D4E90023D118781F24
:1023D000FFF702FF01900198002804DA2046FFF77A
:1023E000EDFE052096E761680198084460600021D1
:1023F0006268501C60602068815404216268501C2F
:102400006060206881544D216268501C60602068C3
:10241000815451216268501C6060206881545421AD
:102420006268501C6060206881546268501C606063
:102430002068815404216268501C606020688154C7
:102440006168481C6060206845540698010A62680B
:10245000501C6060206881540698C1B26268501CAC
:10246000606020688154C8F307216268501C606076
:10247000206881546268501C6060206800F8028007
:10248000D4E90012881842464946FDF7C1FE60684B
:102490004044606005F00400B8B30026139808B902
:1024A00038A013901298FDF79FFE86B2310A626839
:1024B000501C6060206881546268501C6060206815
:1024C0008654D4E90012881832461299FDF7A0FE0E
:1024D0006068304460601398FDF786FE86B2310A6A
:1024E0006268501C6060206881546268501C6060A3
:1024F00020688654D4E90012881832461399FDF7F3
:1025000087FE60683044606000BF05F08000C8B19D
:102510005046FDF769FE86B2310A6268501C606061
:10252000206881546268501C606020688654D4E939
:102530000012881832465146FDF76AFE6068304442
:10254000606000BF05F04000C8B15846FDF74CFE82
:1025500086B2310A6268501C6060206881546268EB
:10256000501C606020688654D4E9001288183246F6
:102570005946FDF74DFE60683044606000BF0020A2
:10258000C8E60000000000002DE9F84F80468946AB
:1025900093469A460D9C00270025002000900026B7
:1025A00060602073A060B8F1000F02D10120BDE887
:1025B000F88F00250AE019F80500232803D019F840
:1025C00005002B2801D10220F1E76D1C19F8050048
:1025D0000028F0D146F030060B9808B146F001060D
:1025E00005EB0A00871C0A9820B1012804D00228B4
:1025F0000AD105E000BF09E046F00206BF1C05E075
:1026000046F00406BF1C01E00320D0E700BFF91C20
:102610002046FFF7F8FD206808B90420C7E7F91C39
:102620002068FDF7BAFD6168481C60602068465468
:10263000D4E9000281183846FFF7CEFD00900098DB
:10264000002804DA2046FFF7B9FD0520AFE76168EE
:10265000009808446060C5F307216268501C606000
:10266000206881546268501C606020688554D4E9F9
:10267000001288182A464946FDF7CAFD60682844BA
:1026800060600A9860B14FEA18216268501C60606F
:10269000206881546268501C6060206800F80280E5
:1026A000BBF1000F09D0D4E90012881852465946F0
:1026B000FDF7AEFD606850446060002077E770B5BC
:1026C00005460C4604212046FFF79DFD206808B909
:1026D000012070BD62216268501C606020688154D6
:1026E00002216268501C606020688154291262686F
:1026F000501C6060206881546268501C60602068D3
:1027000085540020E5E770B505460C4604212046B7
:10271000FFF779FD206808B9012070BD6221626869
:10272000501C60602068815402216268501C606007
:102730002068815429126268501C606020688154AE
:102740006268501C6060206885540020E5E770B521
:1027500005460C4604212046FFF755FD206808B9C0
:10276000012070BD50216268501C60602068815457
:1027700002216268501C60602068815429126268DE
:10278000501C6060206881546268501C6060206842
:1027900085540020E5E770B505460C460421204627
:1027A000FFF731FD206808B9012070BD6221626821
:1027B000501C60602068815402216268501C606077
:1027C0002068815429126268501C6060206881541E
:1027D0006268501C6060206885540020E5E72DE9A0
:1027E000FF5F8046174699460E9C0026B246B346C8
:1027F0000025B8F1000F03D1012004B0BDE8F09F1F
:102800000BE057F8250008B90220F6E757F8250035
:10281000FDF7EAFC0644681CC5B24D45F1DB09EB47
:102820004900801C00EB060A0AF105012046FFF76B
:10283000EAFC206808B90320DFE782216268501CA7
:10284000606020688154D4E9000281185046FFF787
:10285000C3FC8346BBF1000F04DA2046FFF7AEFC51
:102860000420CAE76068584460604FEA1821626833
:10287000501C6060206881546268501C6060206851
:1028800000F80280002524E057F82500FDF7ACFC95
:102890000646C6F307216268501C606020688154B8
:1028A0006268501C606020688654D4E90023D01808
:1028B00057F825103246FDF7ABFC60683044606085
:1028C0000198C1B26268501C606020688154681C25
:1028D000C5B24D45D8DB00208FE72DE9F05F80467B
:1028E0000F4691461C460026B246B3460025B8F175
:1028F000000F02D10120BDE8F09F0BE057F8250042
:1029000008B90220F7E757F82500FDF76DFC0644EB
:10291000681CC5B24D45F1DB022000EB490000EB1D
:10292000060A0AF105012046FFF76DFC206808B988
:102930000320E0E7A2216268501C60602068815497
:10294000D4E9000281185046FFF746FC8346BBF1EC
:10295000000F04DA2046FFF731FC0420CBE7606863
:10296000584460604FEA18216268501C606020681B
:1029700081546268501C6060206800F80280002565
:102980001DE057F82500FDF72FFC0646C6F307218A
:102990006268501C6060206881546268501C6060EE
:1029A00020688654D4E90023D01857F82510324601
:1029B000FDF72EFC606830446060681CC5B24D4570
:1029C000DFDB002097E7F0B504460D4626460123DD
:1029D00000201060002114E0775C07F07F0710688A
:1029E00007FB03001060705C00F0800008B9481C11
:1029F000F0BDDB01B3F5001F02D36FF00100F7E774
:102A0000491CA942E8DB4FF0FF30F1E72DE9F8431C
:102A100007460C4615462F21F81CFDF7DBFB064642
:102A200000200090804616B90120BDE8F883761C8E
:102A30006A460421781CFFF7C6FF252003F056FFE5
:102A40002060206808B90220EFE725212068FDF703
:102A5000A4FB242231462068FDF786FB243600982B
:102A60002C381FFA80F808F1010003F03FFF2860BE
:102A7000286820B9206803F06DFE0320D5E708F12F
:102A800001012868FDF789FB424631462868FDF7B9
:102A90006BFB0020C9E701464878022801D00120DD
:102AA0007047887810B18878012801D1C878F7E795
:102AB000FF20F5E72DE9FC5F81460D4616469A4654
:102AC00099F8000000F00F0B002001900BF00800B7
:102AD00000904FF000080024CBF341008AF800007A
:102AE00001AA042109F10100FFF76DFF4844471CCA
:102AF0000198022802D30BF0010010B1FF20BDE8BD
:102B0000FC9F7878397840EA0124A01C0199814221
:102B100001D2FF20F3E749A1B81CFDF749FB08B13A
:102B20000F20ECE79AF8000020B1012833D00228EA
:102B300072D131E0009808B1FF20E0E7601C03F09B
:102B4000D5FE2860286808B9FF20D8E7611C2868EE
:102B5000FDF723FB2246B91C2868FDF705FB019809
:102B6000801EA0EB040808F1010003F0BFFE3060F6
:102B7000306820B9286803F0EDFDFF20BFE708F1B9
:102B800001013068FDF709FBBA1C11194246306893
:102B9000FDF7EAFA42E000BFA01C0199884201D982
:102BA000FF20ACE7E01C395CA01C385C41EA002146
:102BB0000C9801800C9808B9FF20A0E7601C03F076
:102BC00095FE2860286808B9FF2098E7611C2868EE
:102BD000FDF7E3FA2246B91C2868FDF7C5FA01980B
:102BE000001FA0EB040808F1010003F07FFE306035
:102BF000306820B9286803F0ADFDFF207FE708F1B9
:102C000001013068FDF7C9FA3A1D111942463068D2
:102C1000FDF7AAFA02E0FFE7FF2070E700BF2B21D3
:102C20002846FDF7D7FA20B923212846FDF7D2FA26
:102C300008B1FF2063E7002061E7000024637265AC
:102C40007100000001464878022801D00120704739
:102C5000887820B9C8780A2801D10020F7E7012038
:102C6000F5E701464878022801D0012070478878AE
:102C700020B9C8780A2801D10020F7E70120F5E73C
:102C800001464878022801D001207047887820B991
:102C9000C8780A2801D10020F7E70120F5E70246AD
:102CA0005078022801D0012070479078B0EB112FA6
:102CB00005D1D078CBB2984201D10020F4E70120B1
:102CC000F2E70000F8B50446FF2720780511012D32
:102CD00001DB0E2D01DD3846F8BD032D24D1002087
:102CE00000906A460421601CFFF76DFE2044461CDC
:102CF0000098022803D3207800F0010008B1FF20DB
:102D0000EAE77078317840EA0120801C0099884217
:102D100001D9FF20E0E706A1B01CFDF749FA08B190
:102D20000F2700E0032700E02F463846D4E70000D5
:102D300024637265710000000146FF208A78A2B901
:102D4000CA78142A11D10A7932B1012A05D0022A8F
:102D500004D0802A06D103E000BF00BF002003E0BA
:102D6000012001E0022000BF00BF704701460120A2
:102D70008A781AB9CA781E2A00D10020704700004C
:102D80007FB505460E46002000900190029003900A
:102D90006B46324629460A20FFF79FFDD0B90198BD
:102DA00082B20420009904F0AFF8642003F07EFAA8
:102DB000042003F028FD044622460749042003F0BE
:102DC00021FF054800780B21B1EB201F02D103A0A1
:102DD00001F058F97FBD0000B60B0020B3C9B9A6B9
:102DE000C8A1CFFBB6A9D4C40D0A000000BFFEE7FE
:102DF0007047000070B5002100230F22C47804B38F
:102E0000154C246804F4E064C4F5E064210AC1F1BF
:102E10000403CA40447804FA03F18478144021433F
:102E200009010E4C0678A155047804F01F05012411
:102E3000AC4005786D11AD0005F1E025C5F8004105
:102E400009E0047804F01F050124AC40044D067825
:102E5000761145F8264070BD0CED00E000E400E07E
:102E600080E100E002490143024A1160704700001E
:102E70000000FA050CED00E07047000010B51148A5
:102E8000006800F00200022805D00E48006800F03B
:102E9000020001280AD14FF400510B48FFF77FF8D8
:102EA0004FF480410848FFF77CF809E04FF40051E7
:102EB0000548FFF776F84FF480410348FFF76FF8B5
:102EC00010BD00000808014000100140014600202C
:102ED000034A506820F440400843506070470000A7
:102EE0000010024029B1064A52690243044B5A615C
:102EF00004E0034A52698243014B5A617047000063
:102F00000010024029B1064AD2690243044BDA613B
:102F100004E0034AD2698243014BDA617047000042
:102F20000010024029B1064A12690243044B1A619B
:102F300004E0034A12698243014B1A6170470000A2
:102F40000010024029B1064A92690243044B9A617B
:102F500004E0034A92698243014B9A617047000082
:102F60000010024029B1064AD2680243044BDA60DD
:102F700004E0034AD2688243014BDA6070470000E4
:102F80000010024030B500210022002400232D4D06
:102F90006D6805F00C0121B1042905D0082923D161
:102FA00005E0294D056022E0274D05601FE0254D15
:102FB0006D6805F47012234D6D6805F480340225A8
:102FC00005EB92421CB9214D554305600BE01D4DA8
:102FD0006D6805F400351DB11C4D5543056002E0D8
:102FE000194D5543056002E0174D056000BF00BF55
:102FF000144D6D6805F0F0010909154D6B5C05680D
:10300000DD4045600F4D6D6805F4E061090A104D23
:103010006B5C4568DD4085600A4D6D6805F4605164
:10302000C90A0B4D6B5C4568DD40C560054D6D6898
:1030300005F44041890B074D6B5CC568B5FBF3F5A2
:10304000056130BD0010024000127A0000093D0009
:10305000F40000200401002010B580210748FEF78D
:103060009EFF022003F040F980210448FEF799FFFB
:103070004FF4C86003F01AF910BD000000100140C1
:1030800010B5044600BF02210A4800F021F80028CC
:10309000F9D02146074800F027F800BF0121054874
:1030A00000F016F80028F9D0024800F01AF8C0B273
:1030B00010BD00000038004021B1028842F04002FB
:1030C000028004E002884FF6BF731A400280704706
:1030D0000246002013890B400BB1012000E00020C4
:1030E00070470146888970478181704710B500227A
:1030F000028802F441520B884C8823438C88234376
:10310000CC8823430C8923434C8923438C89234354
:10311000CC8923431A430280838B4FF2FF742340F0
:1031200083830B8A038210BD00B587B001211D2067
:10313000FFF708FF01210803FFF704FF06A8FEF7C9
:1031400032FF1020ADF818008DF81B0003208DF819
:103150001A0006A91E48FEF745FE10211C48FEF77E
:1031600020FF06A8FEF71FFFE020ADF8180018208A
:103170008DF81B0003208DF81A0006A91548FEF7EC
:1031800031FE0020ADF804004FF48270ADF8060067
:103190004FF40060ADF808000220ADF80A000120ED
:1031A000ADF80C004002ADF80E003820ADF810006C
:1031B0000020ADF812000720ADF8140001A9064860
:1031C000FFF794FF01210448FFF776FF07B000BD29
:1031D000001001400008014000300140704710B568
:1031E00000F002F810BD00000CB500200190009026
:1031F0003348006840F480303149086000BF3048EF
:10320000006800F4003000900198401C0190009884
:1032100018B90198B0F5A06FF1D12948006800F401
:10322000003010B10120009001E0002000900098D3
:10323000012843D12348006840F01000214908606C
:103240000846006820F0030008600846006840F067
:10325000020008601A4840681949486008464068FA
:1032600048600846406840F480604860084640680E
:1032700020F47C1048600846406840F4E81048603C
:103280000846006840F08070086000BF0C48006885
:1032900000F000700028F9D00948406820F00300D1
:1032A000074948600846406840F00200486000BF97
:1032B0000348406800F00C000828F9D10CBD00005C
:1032C0000010024000200240012080F3138800BF5C
:1032D00000BF0748006800F4E06006490843001D8D
:1032E00003490860BFF3408F00BF00BFFEE7000046
:1032F0000CED00E00000FA057047000010B513481F
:10330000006840F001001149086008464068104913
:1033100008400E494860084600680E4908400B49BD
:1033200008600846006820F480200860084640686D
:1033300020F4FE0048604FF41F008860FFF74FFF45
:103340004FF000600449086010BD0000001002400A
:103350000000FFF8FFFFF6FE08ED00E04FF0E0216F
:10336000096921F004014FF0E0221161C21700EB5E
:103370005272C2F3C702074B1A701946097801EB63
:103380004102C2EBC1114FF6FF7202EAC101024ACB
:103390001180704724000020260000200EB5012176
:1033A0000846FFF7AFFD4FF0804000F0CDF86420F5
:1033B000ADF804004720ADF800000020ADF8020091
:1033C00069464FF0804000F0CDF90121880700F0F8
:1033D000A8F801221146900700F0BBF901218807E7
:1033E00000F0A5F800210120FFF78CFD0EBD0000C4
:1033F00010B50121880700F09BF978B101218807F9
:1034000000F092F8002407E0054850F82400401C22
:10341000034941F82400641C152CF5DB10BD0000A5
:103420002C03002008B54FF4E060FFF71BFD1C20C3
:103430008DF8000000208DF8010004208DF80200B6
:1034400001208DF803006846FFF7D4FC08BD00009A
:103450000EB501210220FFF755FD114800F074F868
:103460006420ADF804004720ADF800000020ADF85E
:10347000020069460A4800F075F90121084800F089
:1034800050F801221146064800F063F90121044872
:1034900000F04DF800210220FFF734FD0EBD0000C2
:1034A0000004004010B50121104800F041F9E0B1DE
:1034B00001210E4800F038F80D480068401C0C4906
:1034C0000860084600684CF25031884207DB094822
:1034D0000068401C0749086000200549086005484D
:1034E0000068022801D9FFF7EFFE10BD000400407C
:1034F000140000201800002008B54FF4E060FFF72A
:10350000B1FC1D208DF8000000208DF801000B207B
:103510008DF8020001208DF803006846FFF76AFC71
:1035200008BDCA4302827047CA430282704721B174
:10353000028842F00102028004E002884FF6FE7326
:103540001A4002807047000010B504466848844263
:1035500008D10121C014FFF705FD0021E014FFF799
:1035600001FDC4E0B4F1804F08D101210846FFF706
:10357000D9FC00210120FFF7D5FCB8E05D4884426A
:1035800008D101210220FFF7CDFC00210220FFF726
:10359000C9FCACE05848844208D101210420FFF75F
:1035A000C1FC00210420FFF7BDFCA0E05348844289
:1035B00008D101210820FFF7B5FC00210820FFF702
:1035C000B1FC94E04E48844208D101211020FFF75D
:1035D000A9FC00211020FFF7A5FC88E0494884429F
:1035E00008D101212020FFF79DFC00212020FFF7BA
:1035F00099FC7CE04448844208D101214014FFF743
:10360000B1FC00216014FFF7ADFC70E03F4884423C
:1036100009D10121C804FFF7A5FC00214FF40020C7
:10362000FFF7A0FC63E03A48844209D10121080574
:10363000FFF798FC00214FF48010FFF793FC56E051
:103640003448844209D101214805FFF78BFC002151
:103650004FF40010FFF786FC49E02F48844208D160
:1036600001214020FFF75EFC00214020FFF75AFCBB
:103670003DE02A48844208D101218020FFF752FC16
:1036800000218020FFF74EFC31E02548844208D11C
:1036900001218015FFF746FC0021A015FFF742FC31
:1036A00025E02048844209D101210804FFF75AFC93
:1036B00000214FF48030FFF755FC18E01A4884428F
:1036C00009D101214804FFF74DFC00214FF40030DF
:1036D000FFF748FC0BE01548844208D1012188041B
:1036E000FFF740FC00214FF48020FFF73BFC10BDAA
:1036F000002C01400004004000080040000C004085
:10370000001000400014004000340140004C014013
:10371000005001400054014000180040001C0040CF
:1037200000200040004001400044014000480140AA
:1037300030B50246002000230024158A05EA010363
:10374000958905EA010413B10CB1012000E00020C5
:1037500030BD1AB183890B43838102E083898B4397
:1037600083817047002202881D4B98420ED01D4B6A
:1037700098420BD0B0F1804F08D01B4B984205D037
:103780001A4B984202D01A4B984204D14FF68F73CD
:103790001A404B881A43174B984207D0164B984251
:1037A00004D04FF6FF431A40CB881A4302808B881F
:1037B00083850B8803850A4B98420BD0094B9842AE
:1037C00008D00E4B984205D00D4B984202D00D4BBD
:1037D000984201D10B7A038601238382704700004F
:1037E000002C01400034014000040040000800406B
:1037F000000C004000100040001400400040014058
:10380000004401400048014000B585B0012144F268
:103810000500FFF797FB18208DF803004FF40070A8
:10382000ADF8000003208DF8020069461748FEF746
:10383000D9FA04208DF803000002ADF800006946B3
:103840001248FEF7CFFA4FF4E13001900020ADF8B6
:103850000800ADF80A00ADF80C00ADF810000C201F
:10386000ADF80E0001A90A4800F026FB012240F243
:103870002551074800F0FAFA0121054800F0B3FA93
:103880004021034800F0A6FA05B000BD0008014041
:103890000038014010B5002440F225512D4800F0B9
:1038A000BBFA002854D040F225512A4800F092FA81
:1038B000284800F06DFBC4B22748007800B110BD65
:1038C0002648007880B92648007868B9662C0BD164
:1038D00022490878411C214A1170224941F82040B0
:1038E00001201F490870EAE71C4800781A2814DAFA
:1038F0001B480078012810D1184800781A2804DAEB
:103900001948007820441849087014490878411C67
:10391000124A1170134941F82040104800781A28C3
:1039200016D11048406E99280BD101200A49087021
:1039300000200D49087001200C490870002007493B
:10394000087000200549087005490870064908708C
:1039500000BFB4E7003801403200002034000020EE
:1039600035000020780500203600002033000020BC
:1039700008B54FF4E060FFF775FA25208DF80000D8
:1039800000208DF8010005208DF8020001208DF83F
:1039900003006846FFF72EFA08BD000000B585B0A9
:1039A00001210420FFF7CEFA01214804FFF7AAFA0B
:1039B0000420ADF8100018208DF8130003208DF8B6
:1039C000120004A91748FEF70DFA0820ADF8100000
:1039D00004208DF8130004A91248FEF703FA4FF4EF
:1039E000E13000900020ADF80400ADF80600ADF81D
:1039F0000800ADF80C000C20ADF80A00012240F2DE
:103A00002551094800F032FA6946074800F054FA97
:103A10000121054800F0E7F94021034800F0DAF9F8
:103A200005B000BD000801400044004070B500240E
:103A3000002508216B4800F0E2F938B1694800F030
:103A4000A7FAC5B20821674800F0C4F90421654807
:103A500000F0D5F938B1634800F09AFAC5B20421F4
:103A6000604800F0B7F902215E4800F0C8F938B1AB
:103A70005C4800F08DFAC5B202215A4800F0AAF95C
:103A80000121584800F0BBF938B1564800F080FADF
:103A9000C5B20121534800F09DF940F2255151482B
:103AA00000F0BAF900287DD04E4800F071FAC4B297
:103AB0004D48007800B170BD4C48007880B94C4842
:103AC000007868B9242C0BD148490878411C474A32
:103AD0001170484941F82040012045490870EAE743
:103AE000424800780A2814DA41480078012810D1A9
:103AF0003E480078092804DA3F48007820443E49CF
:103B000008703A490878411C384A1170394941F81F
:103B10002040364800780A285DD13648006835498B
:103B2000496808443349896808443249C9680844E7
:103B30003049096908442F49496908442D49896970
:103B400008442C49C96908442A49096A08442A4991
:103B500008702848406A0978884235D10021012040
:103B6000FFF7D0F92548007860B924480078401C58
:103B70002249087001210220FFF7C4F901212048E1
:103B8000FFF7D5FC4FF400711E48FEF70AFA4FF418
:103B900080711C48FEF703FA20211A48FEF701FA4B
:103BA000102100E01CE01748FEF7F9F901200E494A
:103BB00008701549087000200F490870012013494A
:103BC0000870002009490870002008490870084959
:103BD00008700949087040F22551024800F0FAF8CF
:103BE00000BF68E7004400401D0000201F000020C7
:103BF00020000020EC0200202100002022000020F4
:103C000000040040000C0140A60000201E0000201F
:103C100008B54FF4E060FFF725F926208DF8000085
:103C200000208DF801000A208DF8020001208DF897
:103C300003006846FFF7DEF808BD000000B585B058
:103C400001210820FFF77EF901218804FFF75AF9C6
:103C500018208DF803004FF48060ADF800000320B9
:103C60008DF8020069461848FEF7BCF804208DF86C
:103C700003004002ADF8000069461348FEF7B2F8B1
:103C80004FF4E13001900020ADF80800ADF80A00D3
:103C9000ADF80C00ADF810000C20ADF80E000122BC
:103CA00040F22551094800F0E1F801A9074800F069
:103CB00003F90121054800F096F84021034800F07F
:103CC00089F805B000BD0000000C0140004800402C
:103CD00010B5002440F225512D4800F09DF8002831
:103CE00054D040F225512A4800F074F8284800F0DA
:103CF0004FF9C4B22748007800B110BD26480078BB
:103D000080B92648007868B9662C0BD1224908781A
:103D1000411C214A1170224941F8204001201F49CD
:103D20000870EAE71C4800781A2814DA1B48007863
:103D3000012810D1184800781A2804DA19480078A8
:103D400020441849087014490878411C124A11701F
:103D5000134941F82040104800781A2816D110481D
:103D6000406E99280BD101200A49087000200D49A6
:103D7000087001200C4908700020074908700020D5
:103D800005490870054908700649087000BFB4E786
:103D9000004800402A0000202C0000202D000020B8
:103DA000480400202E0000202B00002008B54FF40E
:103DB000E060FFF757F827208DF8000000208DF80D
:103DC000010001208DF802008DF803006846FFF71E
:103DD00011F808BD01F40072B2F5007F00D100BFF8
:103DE000CA430280704721B1828942F40052828125
:103DF00004E082894DF6FF731A40828170470246C3
:103E00000020B1F5007F00D100BF13880B400BB13B
:103E1000012000E00020704770B502460024002316
:103E20000025002040F66A16B14200D100BFC1F360
:103E3000421501F01F03012606FA03F3012D02D1FA
:103E40009689334006E0022D02D1168A334001E004
:103E5000968A33400C12012606FA04F41688344080
:103E600013B10CB1012000E0002070BDF0B5034695
:103E7000002400260025002040F66A17B94200D130
:103E800000BF1846C1F3421401F01F06012707FACC
:103E900006F5012C01D10C3004E0022C01D11030C8
:103EA00000E014301AB107682F43076002E007688A
:103EB000AF430760F0BD00002DE9F04786B005462E
:103EC0000E460024A24600BFA1460027B08900B1DB
:103ED00000BF2F462C8A4CF6FF700440F088044344
:103EE0002C82AC894EF6F3100440B0883189084327
:103EF000718908430443AC81AC8A4FF6FF4004400B
:103F0000B0890443AC8201A8FFF73CF81F48874200
:103F100002D1DDF810A001E0DDF80CA0A88900F4C2
:103F2000004040B10AEBCA0000EB0A1031684900BA
:103F3000B0FBF1F807E00AEBCA0000EB0A103168A9
:103F40008900B0FBF1F86420B8FBF0F0040120090F
:103F5000642101FB1089A88900F4004040B132209F
:103F600000EBC900B0FBF1F000F00700044308E0EB
:103F7000322000EB09106421B0FBF1F000F00F00DB
:103F800004432C8106B0BDE8F087000000380140F2
:103F900001468888C0F308007047C1F30802828098
:103FA000704700BF028802F08002002AFAD08180A8
:103FB000704700BFFEE7000010B504462CB94FF46F
:103FC00080510548FDF7EBFF05E0012C03D12103EB
:103FD0000148FDF7E6FF10BD000C014000B587B0B9
:103FE00001218803FEF78EFF01210920FEF7AAFFB9
:103FF0004FF46040ADF8040003208DF8060018204F
:104000008DF8070001A91D48FDF7ECFE4FF4805024
:10401000ADF8040003208DF8060010208DF807008D
:1040200001A91648FDF7DEFE4FF480511348FDF755
:10403000B8FF0020ADF808004FF48270ADF80A0018
:104040000020ADF80C00ADF80E00ADF810004FF4F4
:104050000070ADF812000820ADF814000020ADF893
:1040600016000720ADF8180002A90548FFF73EF832
:1040700001210348FFF720F807B000BD000C014004
:10408000003800400FB4054B10B503A9044A02984C
:1040900000F0E2F810BC5DF814FB00003167000886
:1040A000DC0200200FB4084B10B504A902AA039843
:1040B00000F0D2F8044602A9002000F064FC20467B
:1040C00010BC5DF814FB00008749000800487047E9
:1040D000E802002002E008C8121F08C1002AFAD135
:1040E00070477047002001E001C1121F002AFBD178
:1040F000704700002DE9FF5FDDE90220010DDDF8CA
:1041000038B0024318D044F61050A1F2FF314143B9
:104110000D140F98012820D0A5EB0B00401C5FEA7E
:10412000000A4FF00004474EDFF81C91A0465046AD
:1041300016D5CAF1000728E00F98012443A20128F0
:1041400008D0002100980F9BC0E90021C0E902437C
:10415000BDE8FF9F6FEA0B01F4E7CBF10000DEE75B
:10416000074612E0F80707D0224633464046494644
:10417000FCF778F8804689462246334610461946B1
:10418000FCF770F804460E467F10002FEAD1DDE9F7
:104190000201BAF1000F42464B4602DAFCF762F820
:1041A00001E0FCF711FB04460E460022284BFCF709
:1041B00093FB03D84FF0FF30014607E00022254B68
:1041C00020463146FCF759FAFCF76DFB102409E054
:1041D000002C0ADB0A220023FCF752F9019B303243
:1041E0001A55641E50EA0102F2D1641C019AC4F10E
:1041F000110314440F9A012A03D0012208430DD160
:104200000AE0084304D000204FF0110B0F9080E724
:10421000A3EB0B056D1E0DE05B4504DD4FF00002C6
:1042200005F1010504E003DA4FF00002A5F10105F4
:10423000002AECD000980F99C0E90231C0E900458E
:1042400086E70000000024400000F03F300000003E
:104250000000F0430000E03F2DE9FF4F95B09B4682
:104260008946064600250FE2252877D100242746F7
:10427000F84A0121059400E0044316F8013F203B71
:1042800001FA03F01042F7D130782A2811D06FF0EC
:104290002F033078A0F13002092A16D8059A44F08D
:1042A000020402EB820203EB42021044761C0590EA
:1042B000EFE759F8042B0592002A03DA504244F440
:1042C0000054059044F00204761C30782E2816D154
:1042D00016F8010F44F004042A280DD06FF02F02C5
:1042E0003078A0F13003092B09D807EB870302EBE4
:1042F0004303C718761CF3E759F8047B761C307823
:104300006C280FD006DC4C2817D068280DD06A28FE
:1043100014D104E0742810D07A280FD10DE044F4B1
:1043200000140AE044F4801401E044F4401472786C
:10433000824202D104F58014761C761C30786628FF
:104340000BD013DC582877D009DC002875D045281D
:10435000F6D04628F4D047281AD19DE118E063280A
:1043600035D0642879D0652812D195E1702873D0B2
:1043700008DC6728F1D069286FD06E280DD06F282F
:1043800006D1B5E073282CD0752875D0782874D064
:104390005A46179990476D1C75E1C4F302500228E4
:1043A00009D003280DD0D9F8001004280DD00D60D5
:1043B00009F1040967E1D9F80010EA17C1E90052D0
:1043C000F6E7D9F800100D80F2E70D70F0E719F864
:1043D000041B8DF8001000208DF80100EA46012032
:1043E00003E059F804AB4FF0FF3061074FF00001D4
:1043F00002D40DE008F101018846B9420FDA804588
:10440000F8DB1AF808100029F4D108E008F10101DE
:1044100088468142FADB1AF808100029F6D105987F
:104420005B46A0EB080721463846179A00F094FA3D
:10443000284400EB080507E04DE029E10DE01AF8FB
:10444000010B5A4617999047B8F10108F7D25B461D
:1044500021463846179A13E142E00A220092C4F33B
:1044600002524FF0000A022A08D059F804CB032A5E
:104470004FEAEC710AD00DE029E02AE009F10701CA
:1044800021F00702F2E802C1914609E00FFA8CFC24
:104490004FEAEC71042A03D14FFA8CFC4FEAEC711D
:1044A000002907DA0A460021DCF1000C61EB020169
:1044B0002D2202E0220504D52B228DF804200122B2
:1044C00003E0E20701D02022F7E7904659E00A21F5
:1044D00002E010220DE010214FF0000A00910BE0E5
:1044E00010224FF0000A44F004040827009203E071
:1044F00008224FF0000A0092C4F30252022A05D0AB
:1045000059F804CB0021032A08D009E009F107017A
:1045100021F00702F2E802C1914605E01FFA8CFC87
:10452000042A01D10CF0FF0C4FF00008220728D517
:10453000702806D0009B83F0100353EA0A0305D0CD
:104540000EE040228DF80420012208E05CEA01021E
:1045500006D030228DF804208DF805000222904606
:10456000009B83F0080353EA0A030AD15CEA0102C4
:1045700001D1620705D530228DF804204FF00108E3
:104580007F1E582804D034A003900EA802900DE09E
:1045900036A0F9E753466046009AFBF771FF844660
:1045A0000398825C0298401E029002705CEA01004F
:1045B000F0D1029806A9081A00F1200A600702D576
:1045C00024F4803400E00127574502DDA7EB0A0000
:1045D00000E0002000EB0A01009005984144401AD9
:1045E0000590E00306D45B462146179A059800F033
:1045F000B3F90544002706E001A85A46C05D1799A3
:1046000090476D1C7F1C4745F6DBE0030CD55B46ED
:104610002146179A059800F09FF9054404E03020E0
:104620005A46179990476D1C0099481E0090002922
:10463000F5DC08E0029802995A460078491C02917C
:10464000179990476D1CBAF10001AAF1010AF1DC3B
:1046500065E1000009280100303132333435363746
:1046600038396162636465660000000030313233BE
:10467000343536373839414243444546000000005E
:1046800000F058F90544761C307800287FF4ECAD32
:1046900019B02846BDE8F08F620700D4062709F15B
:1046A000070222F0070CFCE80223E14603F0004871
:1046B0005FEA080C02D00FF2702C0DE05FEA045C98
:1046C00002D50FF2682C07E05FEAC47C02D00FF23B
:1046D000602C01E0AFF2700C4FF0FF3823F0004384
:1046E000CDF850C065280CD006DC452809D04628F6
:1046F0001DD047283DD13DE0662818D067287ED1DF
:1047000038E00021112F01DB112000E0781CCDE9F9
:10471000000106A90EA8FFF7EDFCDDE90F010E9AD6
:1047200003910021009207F1010A04914DE04FF03E
:1047300000400097CDE9011006A90EA8FFF7DAFCAA
:10474000DDE90F0203920E9B11990022DDF80CA007
:104750000093049211B9791C00EB010AB7EB0A002F
:1047600004D4C0F1FF3007F1010A0490AAEB07005E
:10477000019044E0012F00DA01270021112F01DD13
:10478000112000E03846CDE9000106A90EA8FFF788
:10479000B1FCDDE90F010E9A039100210491009212
:1047A000BA4621070CD40399514500DA8A46BAF17A
:1047B000010F05DD009AAAF10101515C302908D0F2
:1047C000B84202DA10F1040F06DA0121CDE9011036
:1047D00015E0AAF10101E9E7002805DC049901448C
:1047E0000491AAEB000102E0411C514500DD8A461C
:1047F0000499401A401C01904FF00040029020079D
:1048000004D40198504501DBCDF8048000208DF8D8
:104810004F0002980DF14F07B0F1004F25D02B202B
:104820000E9002984FF0020800280CDA40420290E5
:104830002D200E9007E00A210298FBF70BFE303185
:10484000029007F8011DB8F10001A8F10108F2DC9F
:1048500002980028EFD1791E0E980870307800F089
:10486000200040F0450007F8020D12A8C01B00F11F
:1048700007081498007800B1012000EB0A010198A4
:1048800001EBE07105984144401A401E0590E00399
:1048900006D45B462146179A059800F05DF805445A
:1048A0001498007818B15A46179990476D1CE00388
:1048B00024D55B462146179A059800F04DF805442B
:1048C0001CE00498002807DBDDE90301884203DDD2
:1048D0000098405C179901E0179930205A4690479C
:1048E000049805F10105401C04900198401E0190B8
:1048F00004D12E205A46179990476D1CBAF1000139
:10490000AAF1010ADDDC05E017F8010B5A461799F8
:1049100090476D1CB8F10001A8F10108F4DC5B467A
:104920002146179A0598ABE62D0000002B000000E9
:10493000200000002DE9F041044600251E461746E0
:10494000880404D405E039462020B0476D1C641E5D
:10495000F9D52846BDE8F0812DE9F041044600254F
:104960001E469046C80301D5302700E02027880462
:1049700004D505E041463846B0476D1C641EF9D5A4
:104980002846BDE8F0810A68531C0B601070704720
:104990002DE9FF47FDF78AFB03F076FC01F05EFA94
:1049A000642001F083FCFD480078012804D101F067
:1049B0002DFD642001F07AFCF9480088012815D10A
:1049C0000020F7490880F7490870FEF745FB03F01F
:1049D0005BFC03F089FA03F035F901F0A3FCF2491E
:1049E000F24803F0B5FB0120F1490860F148406C42
:1049F00046F2A81188426FD30020EE494864EE4881
:104A00000078002835D1002305E0EC48C15CEC4873
:104A1000FFF7C7FA5B1C142BF7DB0120E94908708C
:104A2000E5490870E8480078012815D10020E649DA
:104A300008700120E5490870E548806BE549087079
:104A4000E348C06BE4490870E148006CE349087032
:104A5000DF48406CE2490870002407E01121D84883
:104A6000FFF79FFA642001F03FFC641C142CF5DB77
:104A700032E0002305E0D148C15CDA48FFF791FA43
:104A80005B1C142BF7DB0020CB4908700120D649B2
:104A90000870D648007801281ED10020D34908703C
:104AA0000120D3490870D348806BD3490870D1489E
:104AB000C06BD2490870CF48006CD1490870CD480E
:104AC000406CD0490870002304E01121BC48FFF776
:104AD00068FA5B1C142BF8DBB648806BCA49884225
:104AE0005AD30020B3498863C8480068401CC749AE
:104AF00008600222C649042002F006FA642001F090
:104B0000D5FBC4480078D02816D10C20A8490860ED
:104B10000020C1490880C14908704FF40061BD48B8
:104B2000FBF73BFB0120BE490870BEA0FFF7AAFAC5
:104B30000020BF4908702FE0B7480088401CB649E4
:104B40000880B6480078401CB44908700E20984987
:104B50000860B1480188B7A0FFF794FAAE48008812
:104B6000022819DDB9A0FFF78DFA0020AA490880B4
:104B700001208B4908800222BA49042002F0C4F9BE
:104B80000020A74908704FF40061A248FBF705FB1D
:104B90008021B548FBF701FB8648016DB3480078DA
:104BA00040F271225043B1EB001F15D30020814920
:104BB0000865AF480068401CAD4908609848007817
:104BC000012809D194480088012805DAA9A0FFF737
:104BD00059FA03207649086076480068F8B1002049
:104BE00074490860A6480078012805D10220A5492B
:104BF00008708F49087012E0A3480078012807D098
:104C0000A2480078012803D0A1480078012803D1E8
:104C100001209C49087002E000209A49087065480C
:104C2000C06AB0F57A6F61D300206249C8629948C2
:104C30000078401C974908709248007820B10128FC
:104C400021D0022851D13DE09348007868B94FF453
:104C500000719248FDF7A5F94FF480718F48FDF778
:104C60009EF901208C4908700CE04FF400718B48CC
:104C7000FDF797F94FF480718848FDF792F900200D
:104C80008549087031E08448007801280CD1010280
:104C90008248FDF786F94FF400718048FDF77FF9EF
:104CA00000207D4908700CE04FF480717B48FDF7CF
:104CB00078F94FF400717948FDF773F901207649CE
:104CC000087012E04FF400717448FDF76AF94FF470
:104CD00080717248FDF763F920217048FDF761F992
:104CE00010216E48FDF75BF900BF00BF3148406AF4
:104CF00044F62061884250D300202E49486268481B
:104D00000078401C664908706648FCF7FDFC654960
:104D10004878FBF719FB6449086062490878FBF79B
:104D200013FB6249086062495F480068FBF788FB33
:104D300011D360495D480068FBF782FB0BD300216B
:104D400059480068FBF772FB0CD1002157480068F6
:104D5000FBF76CFB06D158A0FFF794F901204A49F4
:104D6000087002E00020484908705A4800885A49F3
:104D700008800846008878B958480078401C574990
:104D8000087008460078052805DD55A0FFF77AF978
:104D900001203E490870BDE0AEE00BE12C0100208F
:104DA000A8000020E00000203D0100203501002087
:104DB000C40200202C030020C80000204000002076
:104DC00000380140C900002032000020CA00002045
:104DD00078050020BC000020BE000020C00000209C
:104DE000C600002000480040CB0000202A00002020
:104DF000CC00002048040020BD000020BF0000209F
:104E0000C1000020C7000020A0860100D4000020BF
:104E1000D0020020880C0020AA000020AC00002056
:104E200058000020CAD5B5BDD0C4CCF80D0A00008A
:104E3000AF000020CEB4CAD5B5BDD0C4CCF8B4CE36
:104E4000CAFDA3BA2025640D0A000000D0C4CCF826
:104E5000B3ACCAB1A3ACD6D8D0C2C1ACBDD3A3A1A8
:104E60000D0A00005C000020B60B0020940000201A
:104E7000D8000020B7A2B2BCCFFBCFA20D0A000021
:104E8000A6000020AE000020A1000020A500002008
:104E9000A7000020AD000020B0000020000C014061
:104EA000CD0000206D000020B4000020B8000020DC
:104EB000000048420000C84254686520444854310C
:104EC000312069732064656D6167656420210D0A76
:104ED000000000003A000020760000207900002049
:104EE000546865206E6F6973650969732062616437
:104EF00020210D0A00000000FE480088B0F57A7FEE
:104F000003DD0120FC49087004E00020FA49087024
:104F1000FA490870FA480078012807D0F648007866
:104F2000012803D0F7480078012844D1F4480078DC
:104F3000012801D1F4490870EF480078012802D116
:104F40000220F1490870EF480078012802D10320BF
:104F5000ED490870EA480078012806D1E648007853
:104F6000012802D10420E8490870E54800780128AA
:104F700006D1E4480078012802D10520E2490870F2
:104F8000DD480078012806D1DE480078012802D1EA
:104F90000620DD490870D848007801280ED1D9488C
:104FA000007801280AD1D6480078012806D10720C8
:104FB000D549087002E00020D3490870D3488069C1
:104FC000B0F5FA6F5ED30020D0498861D0480078F0
:104FD00020B101281DD0022853D136E0CD480078F9
:104FE00058B92021CC48FCF7DCFF1021CA48FCF757
:104FF000D6FF0120C74908700AE02021C648FCF707
:10500000D0FF1021C448FCF7CCFF0020C149087034
:1050100037E0C048007801280BD11021BE48FCF7CA
:10502000C0FF2021BC48FCF7BAFF0020B949087036
:105030000AE01021B848FCF7B4FF2021B648FCF77D
:10504000B0FF0120B34908701BE04FF40071B24873
:10505000FCF7A7FF4FF48071AF48FCF7A0FF2021B9
:10506000AD48FCF79EFF1021AB48FCF798FF0021EC
:105070004FF08040FEF75BFA00210120FDF742FF70
:1050800000BF00BFA5480078022820D1A4480078BE
:10509000E8B99E48806C40F6B831884217D30020AA
:1050A0009A4988649D480078022810D101039D48E0
:1050B000FCF775FF4FF480419A48FCF772FF98485F
:1050C0000078401C9649087097A0FEF7DBFF9348D4
:1050D0000078F0B992480078D8B18C48806C40F6DE
:1050E000B831884215D30020884988648B480078FD
:1050F00078B94FF400518B48FCF753FF4FF48041CF
:105100008848FCF74CFF0020854908708BA0FEF70B
:10511000B9FF8F480078012815D18E48007890B1EA
:105120007A48C06C40F6C41188420CD300207749FD
:10513000C86487480078012805D100208549087097
:1051400085A0FEF79FFF82480078B0B981480078BB
:1051500098B96E48C06C40F6C41188420DD3002047
:105160006A49C8647A48007838B97A480078401C9F
:10517000784908707DA0FEF785FF6448C06941F258
:105180008831884252D300206049C8617C48FBF7CF
:10519000DDFD7B4800687B490860794840687A49B2
:1051A0000860774880687949086008460068FBF71E
:1051B0000EF904460D4674480068FBF708F90646E8
:1051C0000F4670480068FBF702F9804642460B46DE
:1051D0006FA0CDE90067CDE90245FEF753FF00213E
:1051E00068480068FBF722F91BD100216648006877
:1051F000FBF71CF915D1002164480068FBF716F98C
:105200000FD169480078401C67490870084600784B
:1052100005280BDD01203B49087064A0FEF732FF32
:1052200004E000206049087036490870674800783B
:10523000052801DDFEF748F865484078882845D103
:105240006348C078992841D161480079614909785B
:1052500088423FD15E4840795E494978884239D1D9
:105260005B4880795B498978884233D15848C07956
:105270005849C97888422DD15548007A01280DD166
:1052800055A0FEF7FFFE01214FF4887000F0BEFD2F
:105290004FF47A7001F00AF8FEF716F84C48007ADD
:1052A00002280ED14A48407A5049087008460178D1
:1052B0004FA0FEF7E7FE4D4801784FF4007000F074
:1052C000A5FD40214248FAF768FF03E0402140482D
:1052D000FAF763FF5149087800EBD0714910A0EB51
:1052E000410129B94E490978012901D1042199E0E8
:1052F000A3E0000076000020A50000207900002037
:10530000A1000020A7000020A20000202C03002004
:10531000AF000020B1000020000C0140DC000020A4
:10532000DE00002000100140616363206973206388
:105330006C6F73656420210D0A00000061636320B7
:105340006973206F70656E656420210D0A0000008E
:10535000DD000020DF000020626174746572792036
:105360006973206869676820210D0A00626174749E
:10537000657279206973206C6F7720210D0A000017
:10538000B4060020880000208C000020900000203F
:1053900078203D2025662C79203D2025662C7A201A
:1053A0003D2025660D0A0000A00000202041636317
:1053B000656C65726174696F6E2069732064656DD8
:1053C000616765642021200D0A000000AC00002008
:1053D000360C00209C000020B6A9D4C4CAD5B5BDA7
:1053E000D6D8C6F4D6B8C1EE210D0A00940000202C
:1053F000B6A9D4C4CAD5B5BDB7A2B2BCBCE4B8F492
:10540000D6B8C1EE21BCE4B8F4B1E4B8FCCEAAA38E
:10541000BA256420A3A10D0A00000000CD000020E1
:10542000C9000020FE48FCF7BAFD0821FD48FCF742
:10543000B8FD0020FC4908701FE0FC49087800EB2B
:10544000D0714910A0EB410179B9F94909780129D6
:105450000BD10421F248FCF7A4FD0821F148FCF728
:105460009EFD0020F249087007E00421EC48FCF79B
:1054700098FD0821EB48FCF794FDEC49087800EB17
:10548000D0714910A0EB410181B9EA49097801299D
:105490000CD1C902E848FCF782FD4FF48051E64880
:1054A000FCF77FFD0020E349087022E0DF4908781F
:1054B00000EBD0714910A0EB410181B9DF490978B7
:1054C00001290CD1C902DC48FCF76BFD4FF4805177
:1054D000D948FCF764FD0020D849087009E04FF472
:1054E0000061D548FCF75DFD4FF48051D248FCF7D0
:1054F00058FDD348007801287ED10020D1490860AA
:10550000D1490860CE490870D0484068012874D15C
:10551000CE48C06801281FD1CD4908702420CD494C
:1055200008700120487006208870002000F01EFCE2
:10553000C849C870022000F019FCC649087104204F
:1055400000F014FCC3494871062000F00FFCC1496B
:1055500088710020C8710872BC48C068022820D138
:105560000120BB4908702420BA4908700220487005
:1055700006208870102000F0F9FBB649C870122090
:1055800000F0F4FBB3490871142000F0EFFBB149BF
:105590004871162000F0EAFBAE4988710020C871FE
:1055A0000872AA48C06803282AD10120A8490870B7
:1055B0002420A84908700320487006208870202005
:1055C00000F0D4FBA349C870222000F0CFFBA14912
:1055D0000871242000F0CAFB9E494871262000F083
:1055E000C5FB9C498871282000F0C0FB9949C8710F
:1055F0002A2000F0BBFB01E092E3D1E1954908725B
:105600009248C068042820D10120914908702420C4
:10561000904908700420487006208870302000F0FF
:10562000A5FB8C49C870322000F0A0FB89490871A5
:10563000342000F09BFB87494871362000F096FB30
:10564000844988710020C87108728048C0680528A4
:1056500024D101207E49087024207E49087005204D
:1056600048700620887040F2052000F07FFB7949E1
:10567000C87040F2072000F079FB7649087140F2CB
:10568000092000F073FB7349487140F2112000F0CB
:105690006DFB704988710020C87108726B48C06842
:1056A00006281FD101206A49087024206949087022
:1056B000062048708870502000F058FB6549C8707B
:1056C000522000F053FB63490871542000F04EFB58
:1056D00060494871562000F049FB5E4988710020FE
:1056E000C87108725948C068072818D10120584964
:1056F00008702420574908700720487006208870D9
:10570000602000F033FB5349C870622000F02EFB8C
:1057100050490871002048718871C87108724B485F
:10572000C068082847D14C48FBF710FB4A4800687E
:105730004A490860484840684949086046488068C6
:10574000484908604848FBF7DFFF47494878FAF7BF
:10575000FBFD4649086044490878FAF7F5FD4449DD
:10576000086001203A49087024203A49087008204E
:105770004870062088703D480068FAF7FBFD3549FF
:10578000C8703B480068FAF7F5FD324908713348A4
:105790000068FAF708FE2F49487131480068FAF7A7
:1057A00002FE2C4988712F480068FAF7FCFD294950
:1057B000C871002008722548C068092814D101204A
:1057C00023490870242023490870092048700620C6
:1057D00088700020C870087148718871C87108729B
:1057E0004FF4036100F094FF1848C068102855D1A9
:1057F0004FF47A7000F05AFD4FF47A7000F056FDC5
:105800004FF47A7000F052FD4FF47A7000F04EFDC4
:105810004FF47A7000F04AFD4FF47A702AE00000ED
:1058200000140140000C0140C9000020CD00002000
:10583000CA000020CB00002000100140CC00002056
:105840001D0000201400002018000020EC020020A1
:105850006F000020D0060020B40600208800002041
:105860008C000020900000206D000020B40000207B
:10587000B800002000F01AFD4FF47A7000F016FD19
:105880004FF47A7000F012FD4FF47A7000F00EFDC4
:105890004FF47A7000F00AFDFDF716FDFE48C0686F
:1058A00012287DD12420FD49087012204870202044
:1058B0008870002000F05AFAF849C870022000F001
:1058C00055FAF6490871042000F050FAF34948717E
:1058D000062000F04BFAF1498871102000F046FADA
:1058E000EE49C871122000F041FAEC490872142008
:1058F00000F03CFAE9494872162000F037FAE7490F
:105900008872202000F032FAE449C872222000F0A8
:105910002DFAE2490873242000F028FADF49487381
:10592000262000F023FADD498873282000F01EFAB3
:10593000DA49C8732A2000F019FAD84908743020CF
:1059400000F014FAD5494874322000F00FFAD34918
:105950008874342000F00AFAD049C874362000F068
:1059600005FACE490875402000F000FACB49487589
:10597000422000F0FBF9C9498875442000F0F6F98F
:10598000C649C875462000F0F1F9C4490876502090
:1059900000F0ECF9C1494876522000F0E7F900E048
:1059A00073E0BE498876542000F0E0F9BB49C87620
:1059B000562000F0DBF9B9490877602000F0D6F9ED
:1059C000B6494877622000F0D1F9B4498877B448E5
:1059D000FBF7BCF9B2480068B2490860B0484068BB
:1059E000B1490860AE488068B0490860B048FBF72C
:1059F0008BFEAF494878FAF7A7FCAE490860AC497E
:105A00000878FAF7A1FCAC490860AA480068FAF7E0
:105A1000B1FCA249C877A8480068FAF7ABFC9F49D7
:105A200081F820009F480068FAF7BDFC9B4981F887
:105A300021009D480068FAF7B6FC984981F82200D9
:105A40009A480068FAF7AFFC944981F823000020D7
:105A50009A49087000BF07E09049095C974A12789C
:105A60001144964A1170401C2428F5DB93480078B5
:105A70008A4981F82400002405E08848015D9048A7
:105A8000FEF78BFA641C252CF7DB8348406802285C
:105A90007ED18148C06801281ED18A4908707E489D
:105AA0000069C1B2002000F0B1F97B484069C1B281
:105AB000022000F0ABF978488069C1B2042000F000
:105AC000A5F97548C069C1B2062000F09FF901210F
:105AD0004FF4837000F09AF96F48C06802281ED115
